:020000040800F2
:1000000028050020050100080128000857260008DF
:10001000FD270008CD0700088D2B00080000000018
:10002000000000000000000000000000A9290008F6
:100030000D0800080000000005280008AB29000892
:100040001F0100081F0100081F0100081F01000810
:100050001F0100081F0100081F0100081F01000800
:100060001F0100081F0100081F010008D107000838
:100070001F0100081F0100081F0100081F010008E0
:100080001F0100081F010008690600081F01000881
:100090001F0100081F0100081F0100081F010008C0
:1000A0001F0100081F0100081F0100081F010008B0
:1000B0001F0100081F010008000000001F010008C8
:1000C0001F01000800000000000000001F010008E0
:1000D000000000001F0100081F01000800000000D0
:1000E0001F0100081F0100081F010008DFF810D0E1
:1000F00000F0A8FA00480047B5350008AFF30080CB
:10010000280500200648804706480047FEE7FEE72E
:10011000FEE7FEE7FEE7FEE7FEE7FEE7FEE7FEE7B7
:10012000212A0008ED000008202A04DB203A21FAE9
:1001300002F00021704721FA02F3D040C2F1200200
:10014000914008431946704740EA01039B0703D0DA
:1001500009E008C9121F08C0042AFAD203E011F806
:10016000013B00F8013B521EF9D27047D2B201E0C8
:1001700000F8012B491EFBD270470022F6E710B5AC
:1001800013460A4604461946FFF7F0FF204610BD05
:100190002DE9FE4F804681EA0300C00F0C46009017
:1001A00021F0004123F00045B8EB0200A94105D23F
:1001B0004046214690461C460B46024623F000402E
:1001C000104347D0270DC7F30A00C3F30A5102902A
:1001D000401A019040286BDAC3F3130040F4801BEF
:1001E0000098924620B10023D2EB030A63EB0B0B7D
:1001F00001985946C0F14002504600F0A5F9064664
:100200000D4650465946019A00F0ADF910EB080032
:100210006141002487EA115284EAE7731A4340D00F
:10022000009A62B3019A012A4FEA075215DC001BBB
:1002300061EB02014FF0004202EA0752CDE90042B1
:10024000001C41F5801132462B4600F0ADF903B099
:10025000BDE8F08F40462146F9E7001B61EB020143
:10026000001C41F5801300185B412018A2F500170F
:1002700047EB030140EAD570B6196D4111E06D08F6
:100280004FEA360645EAC0754FEA0752001B61EB9C
:100290000201001C41F5801149084FEA30000019A5
:1002A000514132462B4603B0BDE8F04F00F06DB926
:1002B0000098012240000023D0EB020263EBE073C0
:1002C000009821464FEAE074B8EB000061EB0401AE
:1002D000E9E783F000435BE781F0004158E72DE94F
:1002E000FE4F81EA030404F0004421F00041009431
:1002F0004FF0000B23F0004350EA01045ED052EAB5
:1003000003045BD0C3F30A54C1F30A552C44A4F28E
:10031000F3340194A0FB0254C1F3130141F48011A2
:10032000C3F3130343F4801301FB024400FB034EA9
:10033000840A970A44EA815447EA8357A4FB076872
:1003400002958D0A05FB07854FEA932C04FB0C549C
:100350002705029D4FEA065847EA1637B5EB080510
:100360006EEB070C870E920E47EA811742EA831262
:10037000A7FB0201B6EB0B0164EB00042B0D43EA73
:100380000C335E1844EB1C50DA465146E7FB020181
:10039000C5F313044FEA0B3343EA14534FEA043214
:1003A000019C43EA0603A4F10C040294009CCDE9ED
:1003B00000B400F0F9F803B0BDE8F08F002001466A
:1003C000F9E72DE9F04D81EA030404F0004B21F038
:1003D000004514464FF0000A23F0004150EA0502A0
:1003E00020D054EA01021DD0C5F30A570246C5F3D6
:1003F0001303C1F31300C1F30A5640F4801543F40C
:100400008013A7EB0608101BD64608F2FD3873EBE5
:10041000050002D308F1010801E092185B41B8F130
:10042000000F03DA00200146BDE8F08D00204FF4F4
:100430008011064684460EE0171B73EB050705D3B3
:10044000121B63EB050306434CEA010C49084FEA13
:10045000300092185B4150EA0107EDD152EA0300E7
:1004600012D082EA040083EA0501084305D0101B7C
:10047000AB4106D20122002306E000224FF00043E8
:1004800002E06FF0010253101AEB06004CEB08512A
:1004900010EB0A0041EB0B01BDE8F04D00F075B820
:1004A0000EB540F2334102910021CDE900110A4618
:1004B0000B4600F079F803B000BDC1F30A5210B545
:1004C000C1F3130140F2FF3341F480119A4201DA83
:1004D000002010BD40F233439A42A2F2334203DCC3
:1004E0005242FFF721FE10BD904010BD30B5041EF2
:1004F00071F1000404DB4FF00044404264EB010161
:10050000141E73F1000405DB1C464FF000435242F9
:1005100063EB04038B4208BF824230BD30B50B460B
:10052000014600202022012409E021FA02F59D4223
:1005300005D303FA02F5491B04FA02F52844151EF7
:10054000A2F10102F1DC30BD202A04DB203A00FADE
:1005500002F1002070479140C2F1200320FA03F31A
:10056000194390407047202A06DBCB17203A41FA06
:1005700002F043EAE07306E041FA02F3D040C2F130
:100580002002914008431946704710B5141E73F1BC
:10059000000408DA401C41F1000192185B411A4343
:1005A00001D120F0010010BD2DE9F04D92469B468F
:1005B00011B1B1FA81F202E0B0FA80F22032904635
:1005C000FFF7C2FF04460F4640EA0A0041EA0B016A
:1005D00053465A46084313D0114653EA010019D036
:1005E000C8F140025046FFF79FFD05460E465046B3
:1005F00059464246FFF7A8FF084305D0012004E012
:1006000020463946BDE8F08D0020054346EAE076F5
:100610002C4337430A986305E40AA0EB0800002244
:10062000FD0A44EA47540A3002D500200146E9E7B2
:10063000010510196941DDE9084500196941BDE866
:10064000F04DA2E7064C074D06E0E06840F00103DC
:1006500094E8070098471034AC42F6D3FFF74AFD00
:10066000543900087439000810B5024800F090F9B8
:1006700010BD00001800002070B504460025206859
:10068000806800F00100F0B12068806820F001006F
:100690002168886000F0C0FE05460EE000F0BCFE58
:1006A000401B022809D9A06A40F01000A062E06A4D
:1006B00040F00100E062012070BD2068806800F019
:1006C00001000028EAD10020F6E770B505466C6A03
:1006D000A06A00F05000E0B9A06A40F40070A06287
:1006E0002068806800F46020B0F5602F0DD1207B79
:1006F00058B9A06A20F48070A062A06A00F480500B
:1007000018B9A06A40F00100A062204600F038F954
:1007100003E0206A016B2846884770BD70B5054626
:100720006C6AA06A40F04000A062E06A40F00400F9
:10073000E062204600F02BF970BD70B50446656A92
:10074000284600F023F970BD38B504460025002086
:1007500000902068806800F0010080BB20688068FD
:1007600040F0010021688860164800681649B0FB17
:10077000F1F0009002E00098401E009000980028E0
:10078000F9D100F049FE054613E000F045FE401B9C
:1007900002280ED9A06A40F01000A062E06A40F082
:1007A0000100E06200BF002084F8240000BF0120A7
:1007B00038BD2068806800F001000028E5D00020E6
:1007C000F6E700001400002040420F0000BFFEE7E3
:1007D00010B5024800F030FB10BD000048000020BA
:1007E00030B590F840500124AC40C56B6C60046893
:1007F00063604468102C04D10468A2600468E1605E
:1008000003E00468A1600468E26030BD704700E066
:10081000401E0028FCD1704772B600BFFEE770474B
:1008200038B5024600230020009000BF92F8240053
:10083000012801D1022038BD012082F8240000BF28
:100840004868072812D21068406B0C79641E04EBCC
:1008500084051F24AC40A0430D796D1E05EB850572
:100860000C68AC4020431468606327E048680D289A
:1008700012D21068006B0C79E41F04EB84051F246E
:10088000AC40A0430D79ED1F05EB85050C68AC402D
:1008900020431468206311E01068C06A0C790D3C95
:1008A00004EB84051F24AC40A0430D790D3D05EBFE
:1008B00085050C68AC4020431468E06208680A288B
:1008C00012D31068C0680C780A3C04EB4405072476
:1008D000AC40A0430D780A3D05EB45058C68AC4063
:1008E00020431468E0600FE0106800690C7804EBA6
:1008F00044050724AC40A0430D7805EB45058C6802
:10090000AC402043146820610868102802D00868B1
:10091000112827D1174C1068A0421ED1106880689A
:1009200000F40000F0B91068806840F4000014681A
:10093000A0600868102815D10F4800680F4CB0FB64
:10094000F4F000EB80004000009002E00098401EB0
:10095000009000980028F9D104E0906A40F020004F
:100960009062012300BF002082F8240000BF1846D7
:1009700061E70000002401401400002040420F0005
:100980000121014A11607047000000207047704744
:1009900010B504462068406800F0200020282FD1C0
:1009A0002068006800F00200022829D1A06A00F047
:1009B000100018B9A06A40F40070A0622068806836
:1009C00000F46020B0F5602F13D1207B88B9206837
:1009D000406820F0200021684860A06A20F4807000
:1009E000A062A06A00F4805018B9A06A40F001002B
:1009F000A0622046FFF7C4FF6FF012002168086074
:100A00002068406800F0800080283BD120680068A2
:100A100000F00400042835D1A06A00F0100018B9D5
:100A2000A06A40F40050A0622068806800F4E040B2
:100A3000B0F5E04F0DD02068406800F48060D0B978
:100A40002068806800F46020B0F5602F13D1207B0F
:100A500088B92068406820F0800021684860A06A5A
:100A600020F48050A062A06A00F4807018B9A06AD7
:100A700040F00100A0622046FFF7D1FE6FF00C00AD
:100A8000216808602068406800F0400040280FD1CD
:100A90002068006800F0010050B1A06A40F4803086
:100AA000A062204600F0A8F86FF0010021680860FD
:100AB00010BD00002DE9F041044600270025002666
:100AC000A84614B90120BDE8F081A06810B1207DCE
:100AD00000B100BFA06A30B90020E06284F82400B1
:100AE000204600F08BF82046FFF7C6FD0746A06AB7
:100AF00000F01000002873D1002F71D1A06A20F4FB
:100B0000885040F00200A062E16960680843217BE0
:100B100040EA41000643A068B0F5807F02D0A0689B
:100B2000012802D14FF4807000E000200543207DB1
:100B3000012811D1207B38B9A069401E4FF4006113
:100B400041EA4030054307E0A06A40F02000A0627F
:100B5000E06A40F00100E0622068406820F46940EB
:100B60002843216848602068806821490840304354
:100B700021688860A068B0F5807F02D0A068012855
:100B800002D14FF4807000E00020B0F5807F03D1E7
:100B9000208A401E4FEA00582068C06A20F4700086
:100BA00040EA08002168C86220688068114908404E
:100BB000B04208D10020E062A06A20F0020040F0BC
:100BC0000100A06211E0A06A20F0020040F01000D5
:100BD000A062E06A40F00100E062012705E0FFE763
:100BE000A06A40F01000A062012738466BE70000C1
:100BF000FDF7E1FFFE0E1FFF7047000010B586B045
:100C00000446002002900390049005902549206836
:100C1000884245D100BF2448806940F400702249D1
:100C200088610846806900F40070019000BF00BF31
:100C300000BF0846806940F0080088610846806966
:100C400000F00800019000BF00BF03200290039055
:100C500002A9164800F054FA154816490860002009
:100C600048600021134881608021C1604900016112
:100C7000C9004161202181610902C16100F0AAF926
:100C800008B1FFF7C9FD00BF0A482062446200BFF7
:100C900000221146122000F045FC122000F032FC28
:100CA00006B010BD0024014000100240000C0140BD
:100CB00008000240480000202DE9F04104460D469E
:100CC0001646002757492068884203D056492068B5
:100CD000884205D15348001D006800F4702000E0F0
:100CE000002000287ED100BF94F82400012802D102
:100CF0000220BDE8F081012084F8240000BF2046D6
:100D0000FFF722FD0746002F6DD1A06A40F6016172
:100D1000884340F48070A06243492068884209D12A
:100D20004048001D006800F4702008B9012002E06E
:100D3000002000E0012078B1A06A20F48010A062B9
:100D40002068406800F4806000B3A06A20F400507E
:100D500040F48050A06219E0A06A40F48010A062C4
:100D600030492068884203D02F492068884205D145
:100D70002C48001D006800F4806000E0002028B1CD
:100D8000A06A20F4005040F48050A062A06A00F4F1
:100D9000805020B1E06A20F00600E06201E000200F
:100DA000E06200BF002084F8240000BF1F48216AD1
:100DB00088621F48216AC8621E48216A08636FF072
:100DC0000200216808602068806840F48070216813
:100DD0008860226802F14C0133462A46206A00F0FE
:100DE0002DF901E01AE014E02068806800F460202A
:100DF000B0F5602F06D12068806840F4A00021681B
:100E000088600CE02068806840F480102168886069
:100E100005E000BF002084F8240000E001273846E8
:100E200067E700000024014000280140CB060008CD
:100E30003B0700081D07000870B50446E06B056815
:100E40002068066894F84010042088402840002854
:100E500046D006F00400002842D02068006800F068
:100E6000200028B92068006820F00400216808608C
:100E700057492068884201D1042027E054491431A1
:100E80002068884201D1402020E051492831206863
:100E9000884201D1001519E04D493C312068884253
:100EA00002D14FF4804011E0494950312068884216
:100EB00002D14FF4802009E045496431206888421E
:100EC00002D14FF4800001E04FF0806040490839C2
:100ED0004860E06A00287AD02046E16A884776E0D8
:100EE00094F84010022088402840A0B306F0020089
:100EF00088B32068006800F0200040B920680068CE
:100F000020F00A0021680860012084F8210030499F
:100F10002068884201D1022028E02D491431206840
:100F2000884201D1202021E02949283120688842C7
:100F300001D140151AE026493C312068884202D18F
:100F40004FF4005012E0224950312068884203D10A
:100F50004FF400300AE017E01D49643120688842F0
:100F600002D14FF4001001E04FF000701849083929
:100F7000486000BF002084F8200000BFA06A30B3A2
:100F80002046A16A884722E094F840100820884053
:100F90002840E0B106F00800C8B12068006820F0E1
:100FA0000E002168086094F8401001208840E16B31
:100FB00048600120A06384F8210000BF002084F86D
:100FC000200000BF206B10B12046216B884770BD08
:100FD000080002400146002209B901207047164B63
:100FE0000868C01A1423B0FBF3F0800008641248AC
:100FF0000838C863022081F821000868026843F6B7
:10100000F0708243D1E901031843CB6818430B69A0
:1010100018434B6918438B691843CB691843024343
:101020000868026000208863012081F82100002008
:1010300081F8200000BFD1E7080002402DE9F0410F
:1010400004460D4616461F464FF0000800BF94F8B0
:101050002000012802D10220BDE8F081012084F89F
:10106000200000BF94F8210001282CD1022084F830
:1010700021000020A0632068006820F001002168A2
:1010800008603B46324629462046FFF7A9FBE06A46
:1010900030B12068006840F00E00216808600BE065
:1010A0002068006820F0040021680860206800685B
:1010B00040F00A00216808602068006840F00100E4
:1010C0002168086006E000BF002084F8200000BF0F
:1010D0004FF002084046BFE770B5044600F09CF9A7
:1010E00006462546681C10B104480078054400BF38
:1010F00000F092F9801BA842FAD370BD10000020C6
:101100002DE9F84703460022944666E14FF00108B6
:1011100008FA02F4D1F8008008EA0400A0427DD168
:10112000DFF8CCA2D1F80480A8EB0A09D0453AD068
:1011300014DCB8F1030F50D009DCB8F1000F31D046
:10114000B8F1010F1CD0B8F1020F49D120E0B8F17D
:10115000110F18D0B8F1120F42D11EE0B9F5881F57
:1011600025D006DCB9F5803F20D0B9F5801F37D1F6
:101170001AE0B9F5001F18D0B9F5041F30D117E0F7
:10118000D1F80CC02DE0D1F80C8008F1040C28E057
:10119000D1F80C8008F1080C23E0D1F80C8008F19C
:1011A0000C0C1EE000BF00BF00BF00BF00BF00BFAF
:1011B000D1F80880B8F1000F02D14FF0040C0BE019
:1011C000D1F80880B8F1010F03D14FF0080C1C6171
:1011D00002E04FF0080C5C6103E04FF0000C00E00F
:1011E00000BF00BFFF2801D8984601E003F10408C2
:1011F0004646FF2802D84FEA820803E0A2F1080819
:101200004FEA88084746D6F800804FF00F0909FAE0
:1012100007F928EA09080CFA07F900E085E048EA2E
:101220000908C6F80080D1F8048008F08058B8F1A9
:10123000805F7AD100BFDFF8BC81D8F8188048F011
:101240000108DFF8B091C9F81880C846D8F81880AE
:1012500008F00108CDF8008000BF00BF4FEAB938A0
:101260004FEA920958F829504FEA82784FEA1879E4
:101270004FF00F0808FA09F825EA0805DFF8788129
:10128000434502D14FF000080FE0DFF8708143457D
:1012900002D14FF0010808E0DFF86481434502D134
:1012A0004FF0020801E04FF003084FEA82794FEA5D
:1012B000197908FA09F848EA0505DFF848814FEA84
:1012C000920948F82950D1F8048008F48038B8F51C
:1012D000803F0AD1DFF83081D8F8008048EA000862
:1012E000DFF82491C9F8008009E0DFF81C81D8F804
:1012F000008028EA0008DFF81091C9F80080D1F8D2
:10130000048008F40038B8F5003F0FD1DFF8F8800A
:1013100008F10408D8F8008048EA0008DFF8E890EF
:1013200009F10409C9F800800EE055E0DFF8D88023
:1013300008F10408D8F8008028EA0008DFF8C8900F
:1013400009F10409C9F80080D1F8048008F4801874
:10135000B8F5801F0ED1DFF8B08008F10808D8F882
:10136000008048EA0008DFF8A09009F10809C9F8F0
:1013700000800DE0DFF8908008F10808D8F80080C0
:1013800028EA0008DFF8809009F10809C9F8008010
:10139000D1F8048008F40018B8F5001F0ED1DFF86A
:1013A000688008F10C08D8F8008048EA0008DFF8E7
:1013B000589009F10C09C9F800800DE0DFF8488069
:1013C00008F10C08D8F8008028EA0008DFF8389007
:1013D00009F10C09C9F80080521CD1F8008028FAE4
:1013E00002F8B8F1000F7FF491AEBDE8F887000075
:1013F000000011100010024000080140000C0140E4
:101400000010014008000140000401400AB10161E0
:1014100001E00B0403617047014800687047000059
:10142000080000200348006803490978084401497E
:1014300008607047080000201000002010B5084820
:10144000006840F0100006490860032000F0A8F88A
:10145000002000F007F800F02BF8002010BD00007D
:101460000020024070B504460E4800784FF47A71AF
:10147000B1FBF0F00C490968B1FBF0F5284600F02B
:10148000E9FF08B1012070BD102C07D200222146CF
:10149000501E00F047F80548046001E00120F2E723
:1014A0000020F0E710000020140000200C000020B5
:1014B00008B500BF1148806940F001000F498861FC
:1014C0000846806900F00100009000BF00BF00BF27
:1014D0000846C06940F08050C8610846C06900F005
:1014E0008050009000BF00BF00BF0549486820F051
:1014F000E06040F00070486000BF08BD001002408E
:101500000000014001460846002809DB00F01F03E7
:1015100001229A4043099B0003F1E023C3F8002114
:1015200000BF70472DE9F05F80460D461646002744
:1015300001F042FB074639462A46334601F00700D0
:10154000C0F1070ABAF1040F02D94FF0040A01E012
:10155000C0F1070AD14600F1040ABAF1070F02D21E
:101560004FF0000A01E0A0F1030AD4464FF0010A4F
:101570000AFA09FAAAF1010A0AEA020A0AFA0CFAB4
:101580004FF0010B0BFA0CFBABF1010B0BEA030B59
:101590004AEA0B042146404601F016FBBDE8F09FE5
:1015A00000BF00F00702064B19684FF6FF03194011
:1015B000044B0B4343EA0221014B196000BF704703
:1015C0000CED00E00000FA05F8B504460026002501
:1015D000207800F0010000286BD000274348C06944
:1015E00000F0805070B900BF4048C06940F08050A2
:1015F0003E49C8610846C06900F08050009000BFB5
:1016000000BF01273A48006800F48070B0B938483C
:10161000006840F4807036490860FFF7FDFE06461A
:1016200006E0FFF7F9FE801B642801D90320F8BD0E
:101630002F48006800F480700028F2D02B48006A20
:1016400000F440752DB3A08800F44070A84220D06B
:101650002648006A20F440750120264908600020D1
:1016600008602248056205F0010090B1FFF7D4FE42
:10167000064608E0FFF7D0FE801B41F28831884221
:1016800001D90320D3E71948006A00F002000028BE
:10169000F0D01648006A20F440706168084313498E
:1016A0000862012F04D10846C06920F08050C8614B
:1016B00000BF207800F00200022807D10B484068E4
:1016C00020F44040A168084308494860207800F0B1
:1016D0001000102807D10548406820F48000E16818
:1016E0000843024948600020A1E7000000100240C2
:1016F000007000404004424270B504460D460CB9EB
:10170000012070BD5A48006800F00700A8420ED2C0
:101710005748006820F007002843554908600846EC
:10172000006800F00700A84201D00120E9E7207816
:1017300000F0020002281DD1207800F004000428E7
:1017400005D14C48406840F4E0604A494860207840
:1017500000F00800082805D14648406840F4605071
:10176000444948604348406820F0F000A1680843BD
:1017700040494860207800F0010078B36068012893
:1017800006D13C48006800F4003090B90120B8E769
:101790006068022806D13748006800F0007040B940
:1017A0000120AEE73348006800F0020008B90120CC
:1017B000A7E73048406820F00300616808432D49DE
:1017C0004860FFF729FE064609E0FFF725FE801B6B
:1017D00041F28831884202D9032092E707E0254888
:1017E000406800F00C006168B0EB810FEDD120483B
:1017F000006800F00700A8420ED91D48006820F0DC
:10180000070028431A4908600846006800F00700EE
:10181000A84201D0012074E7207800F004000428D9
:1018200007D11448406820F4E060E168084311499A
:101830004860207800F00800082808D10D4840686A
:1018400020F46050216940EAC1000A49486000F074
:101850003FF808494968C1F30311074A515CC84081
:101860000649086006480068FFF7FCFD002048E7CD
:1018700000200240001002403C3900081400002003
:101880000C00002001480068704700001400002090
:1018900000B5FFF7F7FF04494968C1F30221034A85
:1018A000515CC84000BD0000001002404C390008E7
:1018B00000B5FFF7E7FF04494968C1F3C221034AB5
:1018C000515CC84000BD0000001002404C390008C7
:1018D000F0B585B00FF26C0C9CE8E01001A8A0E810
:1018E000E0101CA52D680095002100220023002493
:1018F0000020194D696801F00C05F5B1042D02D0E6
:10190000082D19D101E0154819E001ADC1F3834656
:10191000AC5D01F4803555B10F4D6D68C5F34045A0
:101920001DF805200D4D6543B5FBF2F302E00C4DAB
:1019300004FB05F3184602E000BF084800BF00BFE3
:1019400005B0F0BD02030405060708090A0B0C0DDB
:101950000E0F1010010200000010024000127A0069
:1019600000093D00F8B504460CB90120F8BD207807
:1019700000F00100002878D0F848406800F00C0022
:1019800004280CD0F548406800F00C00082811D15C
:10199000F248406800F48030B0F5803F0AD1EF484B
:1019A000006800F4003000285FD0606800285CD137
:1019B0000120DBE700BF6068B0F5803F06D1E74853
:1019C000006840F48030E549086028E0606858B954
:1019D000E248006820F48030E0490860084600686A
:1019E00020F4802008601AE06068B0F5A02F0BD1C9
:1019F000DA48006840F48020D8490860084600684A
:101A000040F4803008600AE0D448006820F4803058
:101A1000D24908600846006820F48020086000BFB2
:101A2000606888B1FFF7F8FC054606E0FFF7F4FCB4
:101A3000401B642801D9032098E7C848006800F4D7
:101A400000300028F2D010E0FFF7E6FC054606E083
:101A5000FFF7E2FC401B642801D9032086E7BF485A
:101A6000006800F400300028F2D1207800F0020075
:101A7000022857D1B948406800F00C0050B1B7486F
:101A8000406800F00C00082818D1B448406800F401
:101A9000803098B9B148006800F0020020B1206998
:101AA000012801D0012061E7AC48006820F0F8006F
:101AB000616940EAC100A949086033E02069E8B1E2
:101AC0000120A7490860FFF7A7FC054606E0FFF7DD
:101AD000A3FC401B022801D9032047E79F48006868
:101AE00000F002000028F2D09C48006820F0F800C6
:101AF000616940EAC1009949086013E000209849F3
:101B00000860FFF789FC054606E0FFF785FC401BEF
:101B1000022801D9032029E79048006800F002005C
:101B20000028F2D1207800F0080008282DD1A06903
:101B3000B8B101208B490860FFF76EFC054606E04E
:101B4000FFF76AFC401B022801D903200EE78348F7
:101B5000406A00F002000028F2D0012000F054FE9C
:101B600013E000207F490860FFF756FC054606E0B9
:101B7000FFF752FC401B022801D90320F6E6774804
:101B8000406A00F002000028F2D1207800F0040042
:101B9000042873D100277148C06900F0805070B9E3
:101BA00000BF6E48C06940F080506C49C86108466B
:101BB000C06900F08050009000BF00BF01276A4854
:101BC000006800F48070B0B96748006840F4807025
:101BD00065490860FFF720FC054606E0FFF71CFC9E
:101BE000401B642801D90320C0E65F48006800F468
:101BF00080700028F2D000BFE068012806D1574865
:101C0000006A40F001005549086227E0E06858B9D1
:101C10005248006A20F00100504908620846006AF4
:101C200020F00400086219E0E06805280BD14B4859
:101C3000006A40F00400494908620846006A40F022
:101C4000010008620AE04548006A20F001004349AB
:101C500008620846006A20F00400086200BFE068DD
:101C6000A0B1FFF7D9FB054609E0FFF7D5FB401B04
:101C700041F28831884202D9032077E622E03748D2
:101C8000006A00F002000028EFD012E0FFF7C4FB6A
:101C9000054608E0FFF7C0FB401B41F2883188424F
:101CA00001D9032062E62D48006A00F002000028F6
:101CB000F0D1012F05D12948C06920F08050274973
:101CC000C86100BFE069C8B32448406800F00C0058
:101CD000082860D0E069022848D100202049086621
:101CE000FFF79AFB054606E0FFF796FB401B02282C
:101CF00001D903203AE61948006800F00070002876
:101D0000F2D1206AB0F5803F07D11448406820F432
:101D10000030A168084311494860D4E9080108432C
:101D20000E49496821F4741108430C4948600120A8
:101D30000B490866FFF770FB054607E03DE0FFF73B
:101D40006BFB401B022801D903200FE60348006803
:101D500000F000700028F2D02FE0000000100240D8
:101D600000004242800442420070004000201449BA
:101D70000866FFF751FB054606E0FFF74DFB401BE9
:101D8000022801D90320F1E50E48006800F0007038
:101D90000028F2D111E0E069012800D1E6E5094808
:101DA000466806F48031206A814204D106F470113D
:101DB000606A814201D00120D8E50020D6E500000C
:101DC000000042420010024010B504460CB9012048
:101DD00010BD606A38B96068B0F5827F00D105E057
:101DE0000021E16102E00021216161610021A16225
:101DF00094F8510028B9002084F85000204600F0E3
:101E000043F8022084F851002068006820F0400068
:101E100021680860A08800F48270218901F40441DF
:101E20000843A18901F400610843217C01F002010B
:101E30000843217D01F001010843218B01F4007169
:101E40000843217F01F0380108432021095D01F09A
:101E500080010843218D01F4005108432168086086
:101E60000421A06901EA1040216848602068C06927
:101E700020F400602168C86100206065012084F8BA
:101E800051000020A4E7000010B586B004460020F1
:101E900002900390049005901949206888422DD142
:101EA00000BF1848806940F4805016498861084690
:101EB000806900F48050019000BF00BF00BF084659
:101EC000806940F0040088610846806900F00400E1
:101ED000019000BF00BFA0200290022003900320C9
:101EE000059002A90848FFF70BF940200290002056
:101EF0000390049002A90448FFF702F906B010BD50
:101F00000030014000100240000801402DE9F84374
:101F10000446884616461D464FF000096068B0F535
:101F2000827F0DD1A06858B9042084F8510033464F
:101F3000424641462046009500F077F9BDE8F88317
:101F400000BF94F85000012801D10220F6E70120DB
:101F500084F8500000BFFFF75FFA074694F851007D
:101F6000012802D04FF002097EE0B8F1000F00D046
:101F700016B94FF0010977E0042084F851000020E1
:101F80006065C4F83880A687E6872063A086E0866F
:101F900020646064A068B0F5004F0BD12068006831
:101FA00020F04000216808602068006820F480402C
:101FB000216808602068006800F04000402805D0D3
:101FC0002068006840F0400021680860E068F8B9C7
:101FD0001AE02068806800F0010050B12068007BA2
:101FE000A16B0870A06B401CA063E08F401EE087CF
:101FF0000AE0FFF711FAC01BA84201D3681C00B920
:1020000015B94FF003092FE0E08F0028E1D11EE061
:102010001AE02068806800F0010050B12068C068B4
:10202000A16B0880A06B801CA063E08F401EE0873E
:102030000AE0FFF7F1F9C01BA84201D3681C00B900
:1020400015B94FF003090FE0E08F0028E1D13A46BF
:102050002946204600F0ECFB08B120206065606D49
:1020600008B14FF0010900BF012084F8510000BF02
:10207000002084F8500000BF48465FE72DE9F84F84
:102080000446884616461D464FF0000A00BF94F8E5
:102090005000012802D10220BDE8F88F012084F809
:1020A000500000BFFFF7B8F90746B14694F8510059
:1020B000012802D04FF0020AADE0B8F1000F00D0C5
:1020C00016B94FF0010AA6E0032084F85100002061
:1020D0006065C4F83080A686E686A063A087E087A6
:1020E00060642064A068B0F5004F0BD120680068E0
:1020F00020F04000216808602068006840F48040BB
:10210000216808602068006800F04000402805D081
:102110002068006840F0400021680860E068B0F581
:10212000006F2FD1606810B1B9F1010F09D1206B98
:1021300000882168C860206B801C2063E08E401EF0
:10214000E0861BE02068806800F0020002280AD1C7
:10215000206B00882168C860206B801C2063E08EA3
:10216000401EE0860AE0FFF757F9C01BA84201D3E2
:10217000681C00B915B94FF0030A4CE0E08E002846
:10218000E0D12EE0606810B1B9F1010F09D1206BE8
:10219000007821680873206B401C2063E08E401E8D
:1021A000E0861BE02068806800F0020002280AD167
:1021B000206B007821680873206B401C2063E08E40
:1021C000401EE0860AE0FFF727F9C01BA84201D3B2
:1021D000681C00B915B94FF0030A1CE0E08E002816
:1021E000E0D13A462946204600F05EFB08B12020A7
:1021F0006065A06850B900BF002000902068C068EA
:10220000009020688068009000BF00BF606D08B13A
:102210004FF0010A00BF012084F8510000BF0020E8
:1022200084F8500000BF504636E72DE9FF5F0446B2
:10223000884691461D460E9E012002900020019086
:1022400000BF94F85000012803D1022004B0BDE87B
:10225000F09F012084F8500000BFFFF7DDF807462B
:1022600094F851B060680390AA46BBF1010F0BD0FF
:102270000398B0F5827F04D1A06810B9BBF1040FB8
:1022800002D002200190DBE0B8F1000F03D0B9F1D9
:10229000000F00D015B901200190D1E094F8510051
:1022A000042802D0052084F8510000206065C4F89D
:1022B0003890E587A587C4F83080E586A586206438
:1022C00060642068006800F04000402805D0206865
:1022D000006840F0400021680860E068B0F5006FD9
:1022E0004AD1606810B1BAF1010F09D1206B0088A2
:1022F0002168C860206B801C2063E08E401EE08651
:1023000033E02068806800F00200022810D1E08EDF
:1023100070B1029801280BD1206B00882168C86039
:10232000206B801C2063E08E401EE086002002901F
:102330002068806800F0010068B1E08F58B1206823
:10234000C068A16B0880A06B801CA063E08F401E5A
:10235000E08701200290FFF75FF8C01BB04204D372
:10236000701C10B1032001906AE0E08E0028C8D1F3
:10237000E08F0028C5D14AE0606810B1BAF1010FC2
:1023800009D1206B007821680873206B401C206302
:10239000E08E401EE08634E02068806800F0020095
:1023A000022810D1E08E70B1029801280BD1206B69
:1023B000007821680873206B401C2063E08E401E6B
:1023C000E086002002902068806800F0010068B17B
:1023D000E08F58B12068C068A16B0870A06B401CEA
:1023E000A063E08F401EE08701200290FFF714F801
:1023F000C01BB04201D3701C00B916B90320019074
:102400001EE0E08E0028C7D1E08F0028C4D13A46F4
:102410003146204600F048FA20B1012001902020EA
:1024200060650DE0A06850B900BF002000902068F2
:10243000C068009020688068009000BF00BF00BFA7
:10244000012084F8510000BF002084F8500000BF34
:102450000198FBE670B504462546681EB0F1807F02
:1024600001D301200FE0681E4FF0E02148610F21E9
:102470004FF0FF3000F0A8FB00204FF0E021886112
:1024800007200861002070BD10B504460CB901207A
:1024900010BDA06900B100E000BF94F8390028B970
:1024A000002084F83800204600F028F8242084F822
:1024B00039002068C06820F400502168C8602046B8
:1024C00000F0B0FA2068006920F4904021680861AB
:1024D0002068406920F02A00216848612068C068AF
:1024E00040F400502168C8600020E063202084F898
:1024F000390084F83A000020CAE7000010B586B021
:102500000446002002900390049005901A49206828
:1025100088422ED100BF1948806940F48040174995
:1025200088610846806900F48040019000BF00BFC8
:1025300000BF0846806940F0040088610846806951
:1025400000F00400019000BF00BF48150290022077
:1025500003900320059002A90948FEF7D1FD4FF42E
:102560008060029000200390049002A90448FEF7C6
:10257000C7FD06B010BD0000003801400010024049
:10258000000801402DE9F84F04460E4617469946CB
:102590004FF0000A94F8390020285AD106B117B933
:1025A0000120BDE8F88F00BF94F83800012801D160
:1025B0000220F6E7012084F8380000BF0020E06325
:1025C000212084F83900FEF727FF8246A784E7849C
:1025D000A068B0F5805F04D1206910B90025B0462D
:1025E00002E035464FF0000800BF002084F83800B4
:1025F00000BF1BE05346002280212046CDF800900A
:1026000000F08EFA08B10320CBE745B9B8F8000016
:10261000C0F308002168486008F1020803E0287848
:10262000216848606D1CE08C401EE084E08C00282E
:10263000E0D15346002240212046CDF8009000F022
:102640006FFA08B10320ACE7202084F8390000209D
:10265000A7E70220A5E700BFFEE700000EB50020B7
:10266000009001900290134813490860002112481D
:10267000816001210173002101754FF46021C16166
:1026800000200D49486001210B480161FEF712FA54
:1026900008B1FEF7C1F80820009001200190002049
:1026A000029069460448FEF7BBF808B1FEF7B4F89B
:1026B0000EBD0000002401401800002008B500BF36
:1026C0000A48406940F001000849486108464069ED
:1026D00000F00100009000BF00BF002211460B2057
:1026E000FEF720FF0B20FEF70DFF08BD0010024093
:1026F00000B585B00020019002900390049000BFC7
:102700001D48806940F020001B49886108468069A7
:1027100000F02000009000BF00BF00BF08468069A5
:1027200040F0040088610846806900F004000090D1
:1027300000BF00BF00BF0846806940F00800886104
:102740000846806900F00800009000BF00BF00222A
:102750004CF26C710948FEF759FE4CF26C70019016
:1027600001200290002003900220049001A9034858
:10277000FEF7C6FC05B000BD00100240000C014091
:1027800010B50E480E4908604FF482704860002171
:102790000B488160C1600161012141614902816191
:1027A0003821C16100210162416281620A21C16256
:1027B000FFF70AFB08B1FEF72FF810BD003001400B
:1027C0008C00002010B50B480B4908604FF41650E0
:1027D0004860002108488160C16001610C214161AD
:1027E00000218161C161FFF74FFE08B1FEF714F8C7
:1027F00010BD000000380140E400002000BFFEE7EB
:1028000000BFFEE77047000008B508490968C9081D
:102810004FF47A72B1FBF2F14143009100BF00BF67
:1028200000994A1E00920029F9D108BD1400002029
:10283000F8B504460E4615466068B0F5827F0DD1A6
:10284000A068B0F5004F03D0A068B0F5806F05D147
:102850002068006820F04000216808606068B0F5DA
:10286000827F11D1A068B0F5806F0DD13346002270
:1028700001212046009500F02BF898B1606D40F0E2
:10288000200060650320F8BD3346002280212046E9
:10289000009500F01DF828B1606D40F020006065E3
:1028A0000320F0E70020EEE7F8B504460D46164693
:1028B0002B46002280212046009600F009F828B11E
:1028C000606D40F0200060650320F8BD0020FCE74B
:1028D0002DE9F84F04460D4690461E46DDF8289037
:1028E000FEF79AFDA0EB0900371AFEF795FD824628
:1028F0002C480068C0F3CB307843009045E0701C52
:10290000002842D0FEF788FDA0EB0A00B84200D2B2
:10291000A7BB2068406820F0E0002168486060683C
:10292000B0F5827F0DD1A068B0F5004F03D0A0684C
:10293000B0F5806F05D12068006820F04000216864
:102940000860A06AB0F5005F0DD100BF2068006884
:1029500020F40050216808602068006840F40050AE
:102960002168086000BF012084F8510000BF0020EA
:1029700084F8500000BF0320BDE8F88FFFE70098FF
:1029800000B900270098401E009020688068284009
:10299000A84201D1012000E000204045AFD1002035
:1029A000EAE7000014000020704710B5FEF73AFD7A
:1029B00010BD00B593B0282109A8FDF7DEFB142156
:1029C00004A8FDF7DAFB002000900190029003902C
:1029D0000220099001200D9010200E9000201090F0
:1029E00009A8FEF7BFFF08B1FDF716FF0F200490FE
:1029F00000200590069007900890002104A8FEF79B
:102A00007BFE08B1FDF708FF022000900020029035
:102A10006846FEF7D9FD08B1FDF7FEFE13B000BD14
:102A20007047000070B504462168096921F44051DF
:102A3000E2681143226811612269A1681143626949
:102A400041EA02052168C96841F20C6291432943B9
:102A50002268D1602168496921F44071A26911435B
:102A6000226851612D4A2168914202D1FEF720FF70
:102A700001E0FEF70DFF00EBC00101EB0011626801
:102A80009200B1FBF2F100EBC00202EB00126368AE
:102A90009B00B2FBF3F26423B2FBF3F202EBC2033E
:102AA00003EB0212A1EB8201322202EB011164223C
:102AB000B1FBF2F101F0F00100EBC00202EB0012F9
:102AC00063689B00B2FBF3F26423B2FBF3F201EB09
:102AD000021200EBC00101EB001163689B00B1FB27
:102AE000F3F100EBC00303EB00136668B600B3FB21
:102AF000F6F36426B3FBF6F303EBC30606EB03130E
:102B0000A1EB8301322303EB01116423B1FBF3F149
:102B100001F00F0111442268916070BD003801403E
:102B20002DE9F04104460D4617469846069E21E0E1
:102B3000701CF8B12EB1FEF76FFCA0EB0800B0429C
:102B400018D92068C06820F4D0702168C860206857
:102B5000406920F0010021684861202084F8390094
:102B600084F83A0000BF002084F8380000BF03203A
:102B7000BDE8F081206800682840A84201D101200A
:102B800000E00020B842D3D00020F1E700BFFEE70C
:102B90000FB4084B10B504A902AA039800F038F846
:102BA000044602A9002000F0D4F9204610BC5DF8CC
:102BB00014FB0000532F000802480068C0F30220F5
:102BC000704700000CED00E010B5002804DB0A0798
:102BD000130E054A135406E00A07140E034A00F0C8
:102BE0000F031B1FD45410BD00E400E018ED00E0FB
:102BF00002E008C8121F08C1002AFAD170477047C6
:102C0000002001E001C1121F002AFBD17047000023
:102C10002DE9FF4F8BB088460546002606E02528A3
:102C20000BD0DDE90D1290476D1C761C287800282A
:102C3000F5D10FB03046BDE8F08F0024A146A24682
:102C40000122AE4900E0044315F8013F203B02FA9F
:102C500003F00842F7D128782A2810D06FF02F020D
:102C60002878A0F13001092915D809EB890102EB78
:102C7000410144F0020400EB01096D1CF0E758F833
:102C8000041B5FEA010903D544F40054C9F10009AB
:102C900044F002046D1C28782E2817D115F8010F76
:102CA00044F004042A280ED06FF02F022878A0F1F7
:102CB000300109290AD80AEB8A0102EB410100EB35
:102CC000010A6D1CF2E758F804AB6D1C28786C28DB
:102CD0000FD006DC4C2817D068280DD06A2814D1F4
:102CE00004E0742810D07A280FD10DE044F40014C9
:102CF0000AE044F4801401E044F44014697881420D
:102D000002D104F580146D1C6D1C2878692865D0EB
:102D100006DC00288DD0632827D0642806D15DE02A
:102D20006E2808D073282AD0752877D0DDE90D12D7
:102D30009047761CE0E0C4F30250022809D0032833
:102D40000DD0D8F8001004280DD00E6008F104084A
:102D5000D2E0D8F80010F217C1E90062F6E7D8F81F
:102D600000100E80F2E70E70F0E718F8041B8DF8E3
:102D7000001000208DF80100EB46012003E058F818
:102D800004BB4FF0FF3061074FF0000701D40AE0A9
:102D90007F1C57450DDA8742FADB1BF80710002924
:102DA000F6D106E07F1C8742FCDB1BF807100029E8
:102DB000F8D1DDE90D23A9EB07008146214600F09B
:102DC000B1F83044C61904E0DDE90D121BF8010B1F
:102DD00090477F1EF8D22146484688E058F8040BF9
:102DE000C4F302514FF00A0B032900D100B20429A9
:102DF00000D140B2002802DA40422D2102E0210534
:102E000005D52B218DF82410012104E006E0E1070F
:102E100010D02021F6E708AF089113E058F8040B12
:102E2000C4F302514FF00A0B032900D180B20429E8
:102E300000D1C0B20021EEE75946FDF76FFB3031FB
:102E400007F8011D0028F7D1ADEB070000F1200BBA
:102E5000600702D524F4803401E04FF0010ADA451E
:102E600002DDAAEB0B0000E00020824600EB0B0124
:102E700008980144A9EB01000A90E00306D4DDE9BB
:102E80000D2321460A9800F04DF806444FF0000942
:102E900008E009A911F80900DDE90D12904709F1D0
:102EA0000109761C08998945F3DBE0030CD5DDE9BF
:102EB0000D2321460A9800F035F8064404E0DDE9C8
:102EC0000D1230209047761CBAF10001AAF1010AD8
:102ED000F5DC05E0DDE90D1217F8010B9047761CD3
:102EE000BBF10001ABF1010BF4DC0A982146DDE9EE
:102EF0000D2300F005F806446D1C97E60928010033
:102F00002DE9F041044600251E461746880404D4E6
:102F100005E039462020B0476D1C641EF9D52846CF
:102F2000BDE8F0812DE9F041044600251E4690469B
:102F3000C80301D5302700E02027880404D505E028
:102F400041463846B0476D1C641EF9D52846BDE899
:102F5000F0810A68531C0B601070704700B5024680
:102F60005448006840F02000524908600820514948
:102F70000831086040200860800008604000086058
:102F80004000086000F044F94A48006840F008003A
:102F900048490860C2F3001018B14020091D0860BC
:102FA00004E04FF480004349091D0860C2F340105B
:102FB00028B14FF480703F49091D086004E04FF0CC
:102FC00080703C49091D0860C2F3801028B14FF49D
:102FD00000703849091D086004E04FF00070354961
:102FE000091D0860D00928B14FF480603149091DDE
:102FF000086004E04FF080602E49091D086000F071
:1030000007F908202B49083108604020086080003B
:103010000860400008604000086000F0F9F82548AA
:10302000006840F008002349086002F0010018B170
:103030004020091D086004E04FF480001D49091D6F
:103040000860C2F3400028B14FF480701949091D8F
:10305000086004E04FF080701649091D0860C2F353
:10306000800028B14FF400701249091D086004E087
:103070004FF000700F49091D0860C2F3C00028B16D
:103080004FF480600B49091D086004E04FF0806038
:103090000849091D086000F0BBF8082005490831FF
:1030A0000860402008608000086040000860400020
:1030B000086000BD0C0C014000B5024620205349B9
:1030C0000860082008604020086080000860400018
:1030D00008604000086000F09BF84C480838006821
:1030E00040F00800494908390860C2F3001018B1DF
:1030F0004020091D086004E04FF480004349091F87
:103100000860C2F3401028B14FF480703F49091F96
:10311000086004E04FF080703C49091F0860C2F36A
:10312000801028B14FF400703849091F086004E08E
:103130004FF000703549091F0860D00928B14FF4DD
:1031400080603249091F086004E04FF080602F4919
:10315000091F086000F05CF808202C490860402036
:10316000086080000860400008604000086000F0CF
:103170004FF826480838006840F00800234908390D
:10318000086002F0010018B14020091D086004E049
:103190004FF480001D49091F0860C2F3400028B1A8
:1031A0004FF480701949091F086004E04FF08070E7
:1031B0001649091F0860C2F3800028B14FF400705F
:1031C0001249091F086004E04FF000700F49091F01
:1031D0000860C2F3C00028B14FF480600B49091F9A
:1031E000086004E04FF080600849091F086000F0A3
:1031F0000FF808200549086040200860800008603A
:10320000400008604000086000BD0000140C014050
:1032100000B54FF47A70FDF7FAFA00BD10B5034619
:103220000C46012B05D104F17F01C8B2FFF744FF22
:1032300006E0022B04D104F1BF01C8B2FFF73CFF46
:1032400010BD70B504460D461646FA20FDF744FF42
:103250000220FFF731FF3220FDF73EFF44F020014E
:10326000294341EA0600FFF727FF3220FDF734FF2C
:103270000620FFF721FF3220FDF72EFF0E20FFF77B
:103280001BFF3220FDF728FF0C20FFF715FF32202F
:10329000FDF722FF0120FFF70FFF6420FDF71CFF61
:1032A00070BD00B5034605E0FFF7B2FF13F8010B50
:1032B000FFF754FE18780028F6D1FFF7A9FF00BDEC
:1032C00070B505460E46144631462846FFF7A6FF60
:1032D0002046FFF7E6FF70BD2DE9F74F9EB09346FD
:1032E00000210C460D46884689461C911D910E46CC
:1032F0000F461A911B918A4648E01F9951F82A00FF
:10330000FDF7CEF822462B46CDE91601FCF740FF2B
:1033100004460D461F9951F82A1001FB01F0FDF7F4
:10332000BFF842464B46CDE91601FCF731FF804617
:1033300089461F9951F82A105BF82A2001FB02F0F8
:10334000FDF7AEF8CDE91601DDE91C23FCF720FFFF
:10335000CDE91C015BF82A00FDF7A2F832463B4696
:10336000CDE91601FCF714FF06460F465BF82A105C
:1033700001FB01F0FDF794F8CDE91601DDE91A2310
:10338000FCF706FFCDE91A010AF1010A1E988245F1
:10339000B3DB22462B4620462946FCF7A0FFCDE9A9
:1033A00016011E98FDF77CF842464B46CDE9120106
:1033B000FCF795FFCDE91401DDE91623FCF789FF41
:1033C000CDE9180100221346DDE91801FDF78EF85A
:1033D00007D1002074490870744908707449087056
:1033E000DFE032463B4620462946FCF778FFCDE930
:1033F00012011E98FDF754F8CDE90E01DDE91C23FA
:10340000FCF76DFFCDE91001DDE91223FCF761FF48
:10341000CDE91401DDE91823FCF7D3FFCDE916014E
:10342000FDF74BF86049087020462946DDE91C236A
:10343000FCF755FF42464B46CDE91201304639466E
:10344000FCF74DFFCDE91001DDE91223FCF741FF48
:10345000CDE91401DDE91823FCF7B3FFCDE916012E
:10346000FDF72BF851490870514800780028B7D073
:103470001E98FDF715F832463B46CDE90E01304661
:103480003946FCF72CFFCDE90C01DDE90E23FCF7F2
:1034900098FFCDE91001DDE91A23FCF71DFFCDE906
:1034A00014011E98FCF7FCFF22462B46CDE90A01C9
:1034B00020462946FCF713FFCDE90801DDE90A2380
:1034C000FCF77FFF42464B46CDE90C01FCF704FFB9
:1034D000CDE910011E98FCF7E3FF32463B46CDE9EB
:1034E000060130463946FCF7FAFECDE90401DDE974
:1034F0000623FCF766FFCDE90801DDE91A23FCF796
:10350000EBFECDE90C011E98FCF7CAFF22462B46C4
:10351000CDE9020120462946FCF7E1FECDE9000194
:10352000DDE90223FCF74DFF42464B46CDE904019D
:10353000FCF7D2FECDE908011E98FCF7B1FF324638
:103540003B46CDE9020120462946FCF7C8FECDE9FD
:103550000001DDE90223FCF734FFCDE90401DDE9D8
:103560001C23FCF7B9FECDE90601DDE90823FCF7D1
:1035700028FFCDE90A01DDE90C23FCF7B0FECDE917
:103580000E01DDE91023FCF7AAFECDE91201DDE909
:103590001423FCF7A4FECDE91601FCF78EFF0449C5
:1035A000087021B0BDE8F08F040000200500002065
:1035B00006000020ADF5BB6DFDF740FFFFF7F9F900
:1035C000FFF796F8FFF77AF8FFF7DAF8FFF7FAF85F
:1035D000FFF744F864220DF589619648FDF76CFB0E
:1035E000082200210846FFF72CFE00BF2022924946
:1035F0000DF58560FCF7A8FDFA20FDF76DFD0020B4
:10360000C990C890002600278CA1CAA8FFF7C0FA6D
:103610000446601C82B2731ECAA98F48FEF7B2FF2F
:10362000012204218D48FDF7F1FE8020C990731E10
:103630000122C9A98A48FEF721FD58B189A1CAA86B
:10364000FFF7A6FA0446601C82B2731ECAA982481C
:10365000FEF798FF1020C9904FF0FF330122C9A94F
:103660007F48FEF70BFD60B17EA1CAA8FFF790FA74
:103670000446601C82B24FF0FF33CAA97648FEF7B9
:1036800081FF002204217548FDF7C0FE9620FDF75A
:1036900023FD00224FF400417048FDF7B7FE0125DD
:1036A00000BF4FF496717DA8FCF767FD6422624964
:1036B000203164A8FCF748FD40F21E700090B8E08D
:1036C0006B48006801283CD10020694908604FF42C
:1036D0007A70FDF701FD40F21E71DDF84804884262
:1036E00005D20122D1035D48FDF790FE05E00022DE
:1036F0004FF400415948FDF789FEDDF848044DF8C4
:103700002500681CC5B24FF47A70FDF7E5FC6A46E7
:1037100064A90120FFF7E0FD4FF47A70FDF7DCFCAF
:103720005448027854A10DF58560FFF731FA0DF584
:10373000856201210220FFF7C3FD4FF47A70FDF787
:10374000CBFC4EA1CAA8FFF723FA0446601C82B244
:103750004FF0FF33CAA94048FEF714FF01220421AD
:103760003E48FDF753FE0220C990C31E0122C9A99D
:103770003B48FEF783FC60B13AA1CAA8FFF708FAFC
:103780000446601C82B24FF0FF33CAA93248FEF7EC
:10379000F9FE4FF0FF330122C8A93148FEF7B6FB0E
:1037A00060B130A1CAA8FFF7F3F90446601C82B2E9
:1037B0004FF0FF33CAA92848FEF7E4FE9DF82063C6
:1037C0004FF0FF330122C8A92548FEF79FFB60B1E7
:1037D00024A1CAA8FFF7DCF90446601C82B24FF0AE
:1037E000FF33CAA91C48FEF7CDFE9DF820730022C6
:1037F00004211A48FDF70AFE0A20FDF76DFC3B463E
:10380000324625A1CAA8FFF7C3F90446601C82B25C
:103810004FF0FF33CAA91048FEF7B4FE23A20121DE
:103820000846FFF74DFDC820FDF756FC1E20FDF7AA
:1038300053FC45E718000020B8380008436F6E6657
:1038400069677572696E672073656E736F722E2E6D
:103850002E200D0A00000000E4000020000C0140B2
:103860008C0000204572726F722E2E2E200D0A00E1
:1038700000000020040000202564000052656164FF
:103880002066726F6D207468652073656E736F7249
:103890002E2E2E200D0A00004D53423D2025642C73
:1038A000204C53423D2025640D0A000054656D7084
:1038B00065726174757265002000000000000000F0
:1038C00000000000000000000000000000000000F8
:1038D00000000000000000000100000002000000E5
:1038E00003000000040000000500000006000000C6
:1038F0000700000008000000090000000A000000A6
:103900000B0000000C0000000D0000000E00000085
:103910000F00000010000000110000001200000065
:103920001300000014000000150000001600000045
:10393000170000001800000019000000000000003F
:10394000000000000102030406070809000000004F
:103950000102030474390008000000201800000070
:10396000F02B00088C39000818000020100500001A
:10397000002C000800000000000000000000000013
:0C39800010000000010000000024F40012
:04000005080000ED02
:00000001FF
