:020000040800F2
:100000003006002005010008DB1E0008631D000803
:10001000D91E0008FD0200085D2300080000000052
:100020000000000000000000000000001520000893
:100030003703000800000000DD1E0008172000083C
:100040001F0100081F0100081F0100081F01000810
:100050001F0100081F0100081F0100081F01000800
:100060001F0100081F0100081F010008010300080C
:100070001F0100081F0100081F0100081F010008E0
:100080001F0100081F010008C10100081F0100082E
:100090001F0100081F0100081F0100081F010008C0
:1000A0001F0100081F0100081F0100081F010008B0
:1000B0001F0100081F010008000000001F010008C8
:1000C0001F01000800000000000000001F010008E0
:1000D000000000001F0100081F01000800000000D0
:1000E0001F0100081F0100081F010008DFF810D0E1
:1000F00000F054F800480047212B0008AFF30080BF
:10010000300600200648804706480047FEE7FEE725
:10011000FEE7FEE7FEE7FEE7FEE7FEE7FEE7FEE7B7
:1001200083200008ED00000840EA01039B0703D08C
:1001300009E008C9121F08C0042AFAD203E011F826
:10014000013B00F8013B521EF9D27047D2B201E0E8
:1001500000F8012B491EFBD270470022F6E710B5CC
:1001600013460A4604461946FFF7F0FF204610BD25
:1001700030B50B46014600202022012409E021FA77
:1001800002F59D4205D303FA02F5491B04FA02F574
:100190002844151EA2F10102F1DC30BD064C074DCA
:1001A00006E0E06840F0010394E807009847103447
:1001B000AC42F6D3FFF79EFF202F0008402F000827
:1001C000014800F043B900001800002070B5044653
:1001D00000688168C943C9071CD1816821F0010109
:1001E000816000F021FD05460FE000BF00F01CFD1E
:1001F000401B022809D9A06A40F01000A062E06A02
:1002000040F00100E062012070BD20688068C043BA
:10021000C007EBD0002070BD10B50146406A826A6D
:1002200012F0500F05D0006A026BBDE8104008467E
:100230001047816A41F40071816201688968C1F3E5
:10024000424107290CD1017B51B9816A21F48071A7
:100250008162816AC90403D4816A41F0010181622B
:1002600000F0ECF810BD10B5406A816A41F0400121
:100270008162C16A41F00401C16200F0E6F810BD7C
:1002800010B5406A00F0E0F810BD0000F8B5002697
:100290000446009600688168C943C90728D0816870
:1002A00041F001018160134813490068B0FBF1F08F
:1002B00000E0401E00900028FBD100F0B5FC054690
:1002C00011E000BF00F0B0FC401B02280BD9A06A6F
:1002D00040F01000A062E06A40F00100E06284F8A3
:1002E00024600120F8BD20688068C043C007E9D1C0
:1002F0000020F8BD1400002040420F00FEE700007F
:10030000014800F07DBA0000E801002030B590F807
:1003100040500124AC40C56B6C6004686360436866
:10032000102B036803D099600068C26030BD9A60EA
:100330000068C16030BD704772B6FEE770470000CC
:10034000F8B50024009490F824202546012A12D004
:10035000012280F824204A681F23072A0DD206684C
:10036000776B521E02EB820293409F430B689340CF
:100370001F43776319E00220F8BD06680D2A0AD2F0
:10038000376BD21F02EB820293409F430B6893406E
:100390001F43376309E0F76A0D3A02EB820293408C
:1003A0009F430B6893401F43F7620A680723066860
:1003B0000A2A0AD3F7680A3A02EB420293409F43A3
:1003C0008B6893401F43F76008E0376902EB4202F5
:1003D00093409F438B6893401F4337610A68102AFC
:1003E00001D0112A20D1124B02689A4217D193688A
:1003F0001B0219D4936843F4000393600968102921
:1004000012D10C490C4A0968B1FBF2F101EB8101F0
:10041000490000E0491E00910029FBD104E0816AF7
:1004200041F020018162012480F824502046F8BD6B
:10043000002401401400002040420F000149012027
:1004400048607047000000207047704710B50446B0
:1004500000684168890626D50168890723D5A16A05
:10046000C90603D4A16A41F40071A1628168C1F395
:100470004241072910D1217B71B9416821F0200147
:100480004160A06A20F48070A062A06AC00403D416
:10049000A06A40F00100A0622046FFF7CFFF21686C
:1004A0006FF0120008602068416809062ED50168C7
:1004B00049072BD5A16AC90603D4A16A41F40051AA
:1004C000A1628168C1F30231072909D04168490559
:1004D00015D48168C1F34241072910D1217B71B93C
:1004E000416821F080014160A06A20F48050A06240
:1004F000A06AC00503D4A06A40F00100A0622046B3
:10050000FFF71CFF21686FF00C000860206841684D
:1005100049060DD50068C0070AD0A06A40F48030B3
:10052000A062204600F094F821686FF00100086096
:1005300010BD00002DE9F0414FF0000704003D46DA
:100540007ED0A06A002628B9E66284F8246020469E
:1005500000F080F82046FFF739FEA16AC90600D4F2
:1005600020B1A06A40F01000A06269E0A16A21F405
:10057000885141F00201A1626268E169237B0A436C
:1005800047EA43010A43A1684FF48077B94209D092
:10059000012907D05FF0000194F814C0BCF1010FED
:1005A00002D00AE03946F7E7F3B1A36A43F020032B
:1005B000A362E36A43F00103E3622368D3F804C053
:1005C0002CF4694C4CEA010CC3F804C021688B6818
:1005D000DFF870C003EA0C0313438B60A168B942D3
:1005E0000BD0012909D00CE0DFF85CC0A3690CEB4B
:1005F00043330B4343F40061DFE7218A0D05A5F582
:1006000080152168CB6A23F470032B43CB622168E9
:1006100089680E4B1940914208D1E662A16A21F027
:10062000020141F00101A162BDE8F081A06A20F061
:10063000020040F01000A062E06A40F00100E062B9
:100640000120F1E7FDF7E1FF00E0FFFFFE0E1FFFD5
:100650007047000070B586B00026054600960196EA
:100660000296039600681E49884236D11D49886962
:1006700040F400708861886900F400700490886913
:1006800040F0080088618869694600F0080004901D
:10069000032000900190144800F0D4F9144C134842
:1006A000C4E900068020C4E9026040002061C00067
:1006B00060612020A0610002E061204600F04AF95C
:1006C00008B1FFF739FE2C62002211461220656244
:1006D00000F016FB122000F005FB06B070BD000014
:1006E0000024014000100240000C014008000240BC
:1006F000E80100202DE9F047894604463B4900689F
:100700003B4F0E1D9046884201D0B84207D1306859
:1007100010F4702F03D001252846BDE8F08794F827
:10072000240001280CD0012084F824002046FFF783
:10073000ADFD05004FF0000004D084F82400EBE785
:100740000220EAE7A16A40F60162914341F4807118
:10075000A1622168B94218D1326812F4702F14D006
:10076000A16A41F48011A1623168490505D5A16AE9
:1007700021F4005141F48051A162A16AC9040AD553
:10078000E16A21F00601E16206E0A26A22F4801229
:10079000A2624968E9E7E06284F82400216A15480A
:1007A0008862216A1448C862216A14480863216873
:1007B0006FF0020008602068816841F480718160F8
:1007C000216843464A464C31206A00F0F1F820681F
:1007D0008168C1F342410729816803D041F4801147
:1007E000816099E741F4A001FAE70000002401408C
:1007F0000028014019020008810200086702000871
:100800002DE9F05FC16B0C6801680B68D0F840C03F
:10081000042202FA0CF2494DDFF824A1494E4A4F56
:10082000DFF828B1DFF828E122422CD05A072AD578
:100830000A68920603D40A6822F004020A6001687A
:10084000A94201D1042219E0514501D1402215E00D
:10085000B14202D14FF4806210E0B94202D14FF4AC
:1008600080420BE0594502D14FF4802206E07145E9
:1008700002D14FF4800201E04FF080622F49083925
:100880004A60C16A3BE04FF0020808FA0CF818EA27
:10089000040F4FF000094FF0010235D05FEA837872
:1008A00032D50B689B0605D40B6823F00A030B6056
:1008B00080F821200168A94201D1022219E05145A6
:1008C00001D1202215E0B14202D14FF4007210E0B4
:1008D000B94202D14FF400520BE0594502D14FF416
:1008E000003206E0714502D14FF4001201E04FF0F2
:1008F0000072124908394A6080F82090816A002904
:100900001AD0BDE8F05F0847082505FA0CF5254226
:1009100012D01B0710D50B6823F00E030B6090F864
:100920004010C36B02FA01F15960826380F8212004
:1009300080F82090016BE2E7BDE8F09F08000240DC
:100940001C000240300002404400024058000240B7
:100950006C00024030B528B308C81349142219446A
:10096000B1FBF2F18900C163104981630221417733
:100970001A6843F6F0718A43D0E900142143D0E9A4
:1009800002452C432143046921434469214384697E
:10099000214311431960002141630122427701770D
:1009A000084630BD012030BDF8FFFDBF0000024009
:1009B00070B5044690F82000002501280CD00120D5
:1009C00084F8200094F821600020012E06D084F8DD
:1009D00020000225284670BD022070BD022684F842
:1009E0002160A0632068066826F0010606602046A4
:1009F000FFF78CFCE06A00282068016802D041F013
:100A00000E0106E021F0040101602068016841F058
:100A10000A0101602068016841F001010160D9E725
:100A200070B5044600F000F90546601C02D0044889
:100A30000078044400F0F8F8401BA042FAD370BDDF
:100A4000080000202DE9F84FDFF89C91002409F1FF
:100A5000040A0AF1040B23460F270BF1040EBBE036
:100A60000125A5402A40AA4276D1DFF880C14E6810
:100A7000A6EB0C0866452BD00DDC032E34D005DC2C
:100A800036B3012E19D0022E2FD11BE0112E16D015
:100A9000122E2AD119E0B8F5881F19D006DCB8F556
:100AA000803F15D0B8F5801F1FD111E0B8F5001FA9
:100AB0000ED0B8F5041F18D10AE0CB6815E0CB685A
:100AC0001B1D12E0CB6808330FE0CB680C330CE041
:100AD0008B682BB1012B4FF0080303D0456104E074
:100AE000042302E0056100E00023FF2A01D8064646
:100AF00001E000F104064FEA840501D9A5F12005C3
:100B0000D6F8008007FA05FC28EA0C0803FA05F578
:100B100048EA0508C6F800804D68ED005BD5344D05
:100B2000AE6946F00106AE61AD6924F0030605F03A
:100B3000010500952F4D06EB050CDCF80850A607C3
:100B4000360F07FA06F825EA0805DFF8AC804045BD
:100B500003D14FF0000810E03DE0DFF8A0804045F1
:100B600002D14FF0010808E0DFF89480404502D13F
:100B70004FF0020801E04FF0030808FA06F848EACF
:100B80000508CCF808804D68D9F80060ED034D46A3
:100B900001D5164300E096432E604D68DAF80060F8
:100BA000AD03554601D5164300E096432E604D68CF
:100BB000DBF80060ED025D4601D5164300E0964388
:100BC0002E604D68DEF80060AD02754601D5164313
:100BD00000E096432E60641C0A6832FA04F57FF444
:100BE0003FAFBDE8F88F0000000401400000111085
:100BF000001002400000014000080140000C0140CC
:100C0000001001408068084000D001207047C26891
:100C100021EA02030A4043EA0241016170470AB136
:100C2000016170470904FBE70148806870470000D4
:100C300008000020024881680278114481607047F2
:100C400008000020074810B5016841F0100101605C
:100C5000032000F075F8002000F006F800F024F8FA
:100C6000002010BD0020024070B50D4D04464FF429
:100C70007A712878B1FBF0F00A490968B1FBF0F00D
:100C800000F045FE48B9102C07D200222146501E24
:100C900000F036F800206C6070BD012070BD0000CF
:100CA00008000020140000200C4808B5816941F0BC
:100CB00001018161816901F001010091C16941F087
:100CC0008051C161C06900F08050009004484168C3
:100CD00021F0E06141F00071416008BD0010024068
:100CE00000000140002809DB00F01F0201219140B3
:100CF0004009800000F1E020C0F8001170470000BA
:100D0000F0B40E4B1B680C46C3F30223C3F1070576
:100D1000042D00D90425191D072901D2002300E064
:100D2000DB1E012606FA05F1491E214099409E402E
:100D3000761E16403143F0BC01F026BB0CED00E0FE
:100D4000064900F0070208684FF6FF03184040EA22
:100D50000220034A10430860704700000CED00E0D9
:100D60000000FA052DE9F84305460078354CC00728
:100D700054D0E0690026C00008D4E06940F08050FB
:100D8000E061E069012600F0805000902E48016883
:100D9000C90512D40168804641F480710160FFF7F3
:100DA00043FF074605E000BFFFF73EFFC01B642876
:100DB00023D8D8F80000C005F6D5206A10F440709A
:100DC00021D0A98801F4407181421CD0206A1F49BA
:100DD000012220F440700A6000220A602062C007ED
:100DE00011D0FFF721FF074641F2883808E000BF25
:100DF000FFF71AFFC11B414502D90320BDE8F88364
:100E0000206A8007F4D5206A696820F4407008439E
:100E100020621EB1E06920F08050E06128788007F0
:100E200005D56068A96820F44040084360602878D0
:100E3000C00605D56068E96820F48000084360605A
:100E40000020DBE7001002400070004040044242F6
:100E50002DE9F0470F46050061D0434E306800F0A1
:100E60000700B84209D2306820F0070038433060EC
:100E7000306800F00700B84251D128683B4C810728
:100E800012D5400703D5606840F4E06060602878C0
:100E9000000703D5606840F4605060606068A9682E
:100EA00020F0F000084360602878C00728D0686808
:100EB000012810D02168022810D0890700292EDAD5
:100EC000616821F0030101436160FFF7ADFE8046D8
:100ED00041F288390DE021688903EFE78901EDE7E8
:100EE000FFF7A2FEA0EB0801494502D90320BDE8A7
:100EF000F0876068696800F00C00B0EB810FEFD1FB
:100F0000306800F00700B8420BD9306820F00700C5
:100F100038433060306800F00700B84201D001204B
:100F2000E5E72878400705D56068E96820F4E060C7
:100F3000084360602878000706D56068296920F4B6
:100F4000605040EAC100606000F038F86168084A0B
:100F5000C1F30311515CC8400649086006480068A7
:100F6000FFF782FE0020C2E700200240001002408E
:100F7000082F0008140000200C0000200448054938
:100F800000684968044AC1F30221515CC8407047B7
:100F90001400002000100240182F000804480549E2
:100FA00000684968044AC1F3C221515CC8407047D7
:100FB0001400002000100240182F000812A185B074
:100FC0000FC98DE80F0014A0144A006804905168FE
:100FD000134801F00C03042B10D0082B0ED1C1F3E1
:100FE0008343C9031DF803000AD5516804AAC1F35D
:100FF0004041515C0A4A5043B0FBF1F005B07047E4
:1010000008494843FAE700000203040506070809F7
:101010000A0B0C0D0E0F1010010200000010024010
:1010200000127A0000093D002DE9F84F040070D04D
:101030002078C04DC00749D06868C0F381000128FE
:1010400007D06868C0F38100022809D16868C0032E
:1010500006D52868800339D560680028E7D035E0D8
:101060006068B0F5803F0BD010B1B0F5A02F11D063
:10107000286820F480302860286820F4802002E06E
:10108000286840F480302860606890B1FFF7CCFD9C
:1010900006460AE0286840F480202860F0E700BF98
:1010A000FFF7C2FD801B642873D828688003F7D53A
:1010B0000CE0FFF7B9FD064605E000BFFFF7B4FD01
:1010C000801B6428F0D828688003F7D420789A4ED3
:1010D00080074FF001094FF0000839D5686810F01B
:1010E0000C0F07D06868C0F38100022809D1686836
:1010F000C00306D42868800714D52069012808D1C8
:1011000010E02069B0B1C6F80090FFF78DFD0746EA
:1011100005E00AE1FFF788FDC01B0228C4D8286853
:101120008007F7D52868616920F0F80040EAC1001F
:1011300028600DE0C6F80080FFF776FD074604E062
:10114000FFF772FDC01B022823D828688007F7D458
:10115000207800072CD57948A169D9B1C0F8009052
:10116000FFF762FD074604E0FFF75EFDC01B0228A3
:101170000FD8686A8007F7D571484FF4FA510068B4
:10118000B0FBF1F0009000BF0098411E0091FAD230
:101190000EE080E0C0F80080FFF746FD074604E05F
:1011A000FFF742FDC01B022875D8686A8007F7D494
:1011B0002078400760D5E8690027C00008D4E869B6
:1011C00040F08050E861E869012700F0805000900D
:1011D0005C480168C90513D40168834641F48071F5
:1011E0000160FFF721FD824606E000BFFFF71CFD0E
:1011F000A0EB0A0064284ED8DBF80000C005F5D546
:10120000E06801280AD008B1052813D0286A20F028
:1012100001002862286A20F0040002E0286A40F0F9
:1012200001002862E06841F2883B98B1FFF7FCFCBE
:1012300082460BE0286A40F004002862EEE700BF17
:10124000FFF7F2FCA0EB0A0159455AD8286A80073B
:10125000F6D50CE0FFF7E8FC824605E0FFF7E4FC7A
:10126000A0EB0A0159454CD8286A8007F6D41FB173
:10127000E86920F08050E861E06988B36968C1F3EB
:101280008101022944D00228C6F8608004D0FFF70B
:10129000CBFC044638E034E0FFF7C6FC074604E028
:1012A000FFF7C2FCC01B02282BD828688001F7D4A6
:1012B000206AB0F5803F05D16868A16820F400304D
:1012C00008436860D4E908010843696821F474118F
:1012D00008436860C6F86090FFF7A6FC044606E085
:1012E00025E000BFFFF7A0FC001B022809D82868F2
:1012F0008001F7D51BE000BFFFF796FC001B02281A
:1013000002D90320BDE8F88F28688001F4D40EE0EC
:101310000128F7D06868226A00F48031914204D134
:10132000616A00F47010884201D00120EAE70020D1
:10133000E8E7000000100240000042428004424200
:10134000140000200070004070B5040009D0606AED
:10135000002540B125616561A56294F8510040B156
:101360000CE0012070BD6068B0F5827FF4D0E561CB
:10137000F2E784F85050204600F040F8022084F84C
:1013800051002068016821F040010160A088218996
:1013900000F4827001F404410843A18901F4006162
:1013A0000843217C01F002010843217D01F0010185
:1013B0000843218B01F400710843217F01F03801BB
:1013C000084394F8201001F080010843218D01F4B6
:1013D0000051084321680860A069042101EA104017
:1013E000216848602068C16921F40061C1616565B8
:1013F000012084F85100002070BD000030B585B098
:1014000000240094019402940394006814498842D3
:1014100023D11448816941F480518161816901F4CB
:1014200080510491816941F00401816180690E4D10
:1014300000F004000490A0200090022001900320FE
:10144000039069462846FFF7FDFA4020CDE90004E5
:10145000694628460294FFF7F5FA05B030BD000052
:101460000030014000100240000801402DE9F84F13
:10147000044640680025984616460F464FF0040B78
:10148000B0F5827F01D1A06888B194F8500001289E
:1014900018D0012084F85000FFF7C6FB814694F86D
:1014A00051004FF0000A01280ED0022582E084F896
:1014B00051B013460A462046CDF8008000F036F9B8
:1014C000BDE8F88F0220FBE7002F72D0002E70D00D
:1014D00084F851B0C4F854A0A763A687E687C4F87F
:1014E00030A0A4F834A0A4F836A0C4F840A0C4F8F2
:1014F00044A0A068B0F5004F09D12068016821F030
:10150000400101602068016821F480410160206889
:101510000168490603D4016841F040010160E068B8
:10152000D8B139E020688168C90709D0007BA16B78
:101530000870A06B401CA063E08F401EE0870CE0A9
:10154000FFF772FBA0EB0901414503D3B8F1FF3F60
:1015500003D036E0B8F1000F33D0E08F0028E1D19E
:101560001DE020688168C90709D0C068A16B0880A8
:10157000A06B801CA063E08F401EE0870CE0FFF7AB
:1015800053FBA0EB0901414503D3B8F1FF3F03D062
:1015900017E0B8F1000F14D0E08F0028E1D14A46DF
:1015A0004146204600F09BFC08B120206065606D3C
:1015B00000B10125012084F8510084F850A028468C
:1015C0007EE70325F6E72DE9F84F044690F8500032
:1015D00000271D461646894601280DD04FF0010B05
:1015E00084F850B0FFF720FB804694F85100BA46CB
:1015F000012804D0022793E00220BDE8F88FB9F15A
:10160000000F73D0002E71D0032084F85100C4F86D
:1016100054A0C4F83090A686E686C4F838A0A4F892
:101620003CA0A4F83EA0C4F844A0C4F840A0A06820
:10163000B0F5004F09D12068016821F04001016038
:101640002068016841F48041016020680168490612
:1016500003D4016841F040010160E068B0F5006F1B
:10166000606803D030B3012E24D041E008B1012ED0
:101670001CD1206B21680088C86006E02068816862
:10168000890709D5216B0988C160206B801C206304
:10169000E08E401EE08609E0FFF7C6FAA0EB0800E6
:1016A000A84202D3681C01D031E07DB3E08E00284F
:1016B000E4D120E0206B21680078087306E0206800
:1016C0008168890709D5216B09780173206B401C5B
:1016D0002063E08E401EE0860AE0FFF7A5FAA0EB4B
:1016E0000800A84203D3681C02D010E017E06DB1D7
:1016F000E08E0028E3D142462946204600F01DFC3A
:1017000008B120206065A06818B106E0FFE7032754
:1017100006E02068C16880680090606D00B1012714
:1017200084F851B084F850A0384666E72DE9F84FA8
:10173000044690F8500000270A9E1D4692468B46AC
:101740004FF0010901280ED0012084F85000FFF766
:101750006BFA804694F85100616801280CD0B1F50D
:10176000827F07D102E00220BDE8F88FA16809B9A5
:10177000042801D00227C2E0BBF1000F27D0BAF144
:10178000000F24D01DB394F85100042802D0052086
:1017900084F8510000206065C4F838A0E587A5876B
:1017A000C4F830B0E586A5862064606420680168CE
:1017B000490603D4016841F040010160E068B0F5DA
:1017C000006F606805D0E8B3012D46D07FE00127A7
:1017D00095E008B1012D39D1206B21680088C860DF
:1017E000206B801C2063E08E401EE0862EE0206887
:1017F000816889070FD5E18E69B1B9F1010F0AD16E
:10180000216B0988C160206B801C2063E08E401E24
:10181000E0864FF0000920688168C9070CD0E18F8D
:1018200051B1C068A16B0880A06B801CA063E08FE1
:10183000401EE0874FF00109FFF7F6F9A0EB080022
:10184000B04200E009E001D3701C50D1E08E0028C6
:10185000CDD1E08F0028CAD13FE0206B216800780D
:101860000873206B401C2063E08E401EE0862EE053
:101870002068816889070FD5E18E69B1B9F1010F40
:101880000AD1216B09780173206B401C2063E08E24
:10189000401EE0864FF0000920688168C9070CD01F
:1018A000E18F51B1C068A16B0870A06B401CA063B0
:1018B000E08F401EE0874FF00109FFF7B5F9A0EB7C
:1018C0000800B04202D3701C01D010E07EB1E08E5F
:1018D0000028CDD1E08F0028CAD1424631462046AB
:1018E00000F02BFB28B101272020606507E00327CB
:1018F00005E0A06818B92068C168806800900120E0
:1019000084F85100002084F8500038462CE710B5C8
:10191000401EB0F1807F01D3012010BD4FF0E024C4
:1019200060610F21601700F02FFD0020A0610720EB
:101930002061002010BD000070B590F83C20012A05
:1019400023D0012480F83C40022280F83D20036827
:101950005A689D6822F070060A6832435A600C4B40
:1019600002689A4205D0B2F1804F02D0094B9A42E8
:1019700004D1496825F080031943916080F83D4007
:10198000002180F83C10084670BD022070BD0000A8
:10199000002C01400004004090F83D10012901D0C6
:1019A00001207047022180F83D10006809498842F3
:1019B00005D0B0F1804F02D00749884204D1816838
:1019C00001F00701062903D0016841F0010101601F
:1019D00000207047002C01400004004000B585B095
:1019E0000021009101910291039100680F49884202
:1019F0001AD10F48816941F0080181618069694607
:101A000000F0080004901020009002200190039044
:101A10000848FFF717F80848416821F4406141F091
:101A2000E06141F40061416005B000BD0004004088
:101A300000100240000C01400000014010B50446B7
:101A400090F83C0001280AD0012084F83C0042B103
:101A5000042A0AD0082A0CD00C2A11D10DE0022049
:101A600010BD206800F04AFB0AE0206800F06EFB21
:101A700006E0206800F096FB02E0206800F0BEFB64
:101A8000002084F83C0010BD10B5040003D094F889
:101A90003D0010B107E0012010BD002084F83C009B
:101AA000204600F01FF8022084F83D00211D206828
:101AB00000F0E8FA012084F8460084F83E0084F83B
:101AC0003F0084F8400084F8410084F8420084F824
:101AD000430084F8440084F8450084F83D00002069
:101AE00010BD000008B500680649884208D10648C4
:101AF000C16941F00201C161C06900F002000090BB
:101B000008BD0000000400400010024010B504466B
:101B1000022249B104290ED0082913D094F84100BB
:101B2000012816D0012010BD94F83E000128F9D1FB
:101B300084F83E200FE094F83F000128F2D184F8A9
:101B40003F2008E094F840000128EBD184F84020C1
:101B500001E084F841200122206800F0C1FA0E491A
:101B60002068884203D1426C42F4004242642068FB
:101B7000884205D0B0F1804F02D00849884204D194
:101B8000816801F00701062903D0016841F00101D5
:101B90000160002010BD0000002C01400004004046
:101BA00070B5040004D094F83900002510B106E0A7
:101BB000012070BD84F83850204600F023F824201E
:101BC00084F839002068C16821F40051C1602046C2
:101BD00000F036FB2068016921F490410161206822
:101BE000416921F02A0141612068C16841F4005136
:101BF000C160E563202084F8390084F83A000020B1
:101C000070BD000070B586B0002400940194029469
:101C10000394234E0368234902200322224DB3423A
:101C200019D18B6943F480438B618B6903F4804342
:101C300004938B6943F004038B618969039201F07B
:101C4000040104910102CDE9001069462846FEF71F
:101C5000F9FE28151BE0154EB3421FD1CB6943F4A2
:101C60000033CB61CB6903F4003304938B6943F0F9
:101C700004038B618969039201F00401049104213A
:101C8000CDE9001069462846FEF7DCFE0820CDE9C4
:101C90000004694628460294FEF7D4FE06B070BDE3
:101CA000003801400010024000080140004400409C
:101CB0002DE9F843044690F839001F4616460D46B4
:101CC00020284CD1C5B1BEB194F83800012846D0C7
:101CD000012084F838004FF00008C4F83C8021202F
:101CE00084F83900FEF7A0FFA6848146E684A06848
:101CF000B0F5805F03D004E00120BDE8F8832069DF
:101D000028B12E465FF0000584F838800EE00026EA
:101D1000FAE78021204600F0EFFAA0B9AEB116F83C
:101D2000010B21684860E08C401EE084E08C4B464B
:101D30004FF0000200970028EBD14FF04001204601
:101D400000F0DAFA30B10320D7E735F8020BC0F320
:101D50000800E6E7202084F839000020CDE70220C3
:101D6000CBE7FEE73EB500241148009401940294AD
:101D70000E498460016001250573047505614FF407
:101D800060214460C161FEF7D5FB08B172B6FEE781
:101D90000820CDE90005694602940548FEF7D0FA0F
:101DA000002801D072B6FEE73EBD000000240140CD
:101DB0001800002070B586B00024184800940194E3
:101DC00002940394816941F020018161816901F0ED
:101DD00020010491816941F004018161816901F070
:101DE00004010491816941F00801816180690C4E10
:101DF00000F008004CF2EC750490002229463046B1
:101E0000FEF70DFF01200095CDE9010402200390AB
:101E100069463046FEF716FE06B070BD001002405F
:101E2000000C01400F4810B50D4901604FF482715C
:101E30004160002181600122C160C0E904125202A8
:101E400082613822C0E90721416281620A21C162B0
:101E5000FFF77AFA002801D072B6FEE710BD000045
:101E6000003001404800002010B58AB000240794DB
:101E70001C2168460894FEF770F916481449016061
:101E80006C21C0E901144FF6FF71C0E903148461AD
:101E9000FFF7FAFD08B172B6FEE7079407A90D48EF
:101EA0000894FFF749FD08B172B6FEE7009401946B
:101EB00002940022694607480494FFF7BFFD08B169
:101EC00072B6FEE70348FFF789FD0AB010BD0000B7
:101ED00000040040A0000020FEE7FEE77047F8B5D0
:101EE000044640684FF48273984217D1A0684FF4BB
:101EF0008065B0F5004F01D0A8420FD12068066878
:101F000026F0400606606068984207D1A068A842A3
:101F100004D100920B460022012103E000920B46FF
:101F200000228021204600F019F8002804D0606DBE
:101F300040F0200060650320F8BD38B50B460092E4
:101F400004460022802100F009F8002804D0606DCA
:101F500040F020006065032038BD00002DE9F84303
:101F60001E46914688460446089DFEF75DFE401BCE
:101F7000351AFEF759FE074625480068C0F3CB30F6
:101F8000684338E0701C37D0FEF74EFEC01BA842F5
:101F900003D215B1009860B32CE02068416821F0AD
:101FA000E00141606068B0F5827F0BD1A068B0F5B8
:101FB000004F02D0B0F5806F04D12068016821F095
:101FC00040010160A06AB0F5005F09D12068016896
:101FD00021F4005101602068016841F40051016062
:101FE000012084F85100002084F850000320BDE84F
:101FF000F8830025401E00902068816838EA0100BF
:1020000004D000214945BDD10020F0E70121F9E7C6
:10201000140000207047FEF70DBE30B593B02821A4
:102020006846FEF79AF814210AA8FEF796F80024ED
:1020300001200F9402250490009510201194059022
:102040001094129407946846FEF7EEFF08B172B63A
:10205000FEE70F20CDE90A040C940D9400210AA894
:102060000E94FEF7F5FE08B172B6FEE70FA80F95C5
:102070001194FEF777FE002801D072B6FEE713B088
:1020800030BD704770B50268134B144C4FF080465A
:10209000984203D0B04201D0A04203D122F0700593
:1020A0004A682A43984203D0B04201D0A04203D1EB
:1020B00022F44074CA6822434C6922F08002224311
:1020C00002608A68C2620A688262984201D1096924
:1020D00001630121416170BD002C014000040040FA
:1020E00010B501F01F030121046A99408C4304627A
:1020F000016A9A401143016210BD000030B5026AC6
:1021000022F001020262026A4368846924F07305C6
:102110000C682C4322F002058A682A430A4DA84223
:102120000BD122F00805CA6823F440732A434D6995
:1021300022F004021D438B692B434360846149688C
:102140004163026230BD0000002C014030B5026ADC
:1021500022F010020262026A436884690D6824F466
:10216000E64444EA05248D6822F0200242EA051282
:102170000B4DA8420ED1CD6822F0800242EA051232
:102180004D6923F4406343EA85038D6922F04002E0
:1021900043EA85034360846149688163026230BD1C
:1021A000002C014030B5026A22F480720262036A98
:1021B0004268C46923F4007324F073050C682C434F
:1021C0008D6843EA05230C4DA8420ED1CD6823F457
:1021D000006343EA05234D6922F4405242EA0512A6
:1021E0008D6923F4806342EA05124260C461496844
:1021F000C163036230BD0000002C014030B5026AAB
:1022000022F480520262046A4268C3690D6823F4B2
:10221000E64343EA05238D6824F4005444EA053478
:10222000064DA84204D14D6922F4804242EA85124B
:102230004260C36149680164046230BD002C014002
:1022400070B5044600680169E26821F44051114309
:1022500001612169A0680843616908432168CA686F
:1022600041F20C639A430243CA6020684169A26943
:1022700021F44071114341611E492068884202D116
:10228000FEF78CFE01E0FEF779FE00EBC00101EBEA
:102290000012606864218000B2FBF0F3B3FBF1F33D
:1022A0006FF018067343B2FBF0F5B2FBF0F605EBE6
:1022B0008305322303EB0515B5FBF1F5B6FBF1F60B
:1022C00005F0F00505EB0615B2FBF0F6B2FBF0F0F9
:1022D000B0FBF1F06FF01802504306EB800003EB07
:1022E0000010B0FBF1F0216800F00F002844886076
:1022F00070BD0000003801402DE9F04198461746B6
:102300000E460446069D1DE0681C1BD02DB1FEF74D
:102310008BFCA0EB0800A84214D92068C16821F406
:10232000D071C1602068416921F001014161202024
:1023300084F8390084F83A00002084F8380003203B
:10234000BDE8F0812068006836EA000004D0002073
:10235000B842D9D00020F3E70120F9E7FEE70000FA
:102360000FB4084B10B504A902AA039800F02CF88A
:10237000044602A9002000F0C8F9204610BC5DF810
:1023800014FB00000B2700080907090E002804DBD6
:1023900000F1E02080F80014704700F00F0000F119
:1023A000E02080F8141D704702E008C8121F08C121
:1023B000002AFAD170477047002001E001C1121FC6
:1023C000002AFBD1704700002DE9FF4F8BB08846F3
:1023D0000546002606E025280BD0DDE90D129047C2
:1023E0006D1C761C28780028F5D10FB03046BDE86A
:1023F000F08F0024A146A2460122AE4900E004432A
:1024000015F8013F203B02FA03F00842F7D1287883
:102410002A2810D06FF02F022878A0F13001092966
:1024200015D809EB890102EB410144F0020400EBED
:1024300001096D1CF0E758F8041B5FEA010903D598
:1024400044F40054C9F1000944F002046D1C2878DA
:102450002E2817D115F8010F44F004042A280ED0B5
:102460006FF02F022878A0F1300109290AD80AEB71
:102470008A0102EB410100EB010A6D1CF2E758F8FA
:1024800004AB6D1C28786C280FD006DC4C2817D0C4
:1024900068280DD06A2814D104E0742810D07A2856
:1024A0000FD10DE044F400140AE044F4801401E07C
:1024B00044F440146978814202D104F580146D1C03
:1024C0006D1C2878692865D006DC00288DD063282B
:1024D00027D0642806D15DE06E2808D073282AD062
:1024E000752877D0DDE90D129047761CE0E0C4F343
:1024F0000250022809D003280DD0D8F80010042873
:102500000DD00E6008F10408D2E0D8F80010F217E0
:10251000C1E90062F6E7D8F800100E80F2E70E700D
:10252000F0E718F8041B8DF8001000208DF801006A
:10253000EB46012003E058F804BB4FF0FF30610781
:102540004FF0000701D40AE07F1C57450DDA87429F
:10255000FADB1BF807100029F6D106E07F1C874242
:10256000FCDB1BF807100029F8D1DDE90D23A9EBEE
:1025700007008146214600F0B1F83044C61904E056
:10258000DDE90D121BF8010B90477F1EF8D22146A2
:10259000484688E058F8040BC4F302514FF00A0B88
:1025A000032900D100B2042900D140B2002802DA88
:1025B00040422D2102E0210505D52B218DF8241064
:1025C000012104E006E0E10710D02021F6E708AF82
:1025D000089113E058F8040BC4F302514FF00A0BB2
:1025E000032900D180B2042900D1C0B20021EEE756
:1025F0005946FDF7BDFD303107F8011D0028F7D120
:10260000ADEB070000F1200B600702D524F4803405
:1026100001E04FF0010ADA4502DDAAEB0B0000E011
:102620000020824600EB0B0108980144A9EB010051
:102630000A90E00306D4DDE90D2321460A9800F054
:102640004DF806444FF0000908E009A911F8090007
:10265000DDE90D12904709F10109761C08998945B9
:10266000F3DBE0030CD5DDE90D2321460A9800F0E9
:1026700035F8064404E0DDE90D1230209047761C61
:10268000BAF10001AAF1010AF5DC05E0DDE90D125D
:1026900017F8010B9047761CBBF10001ABF1010B61
:1026A000F4DC0A982146DDE90D2300F005F8064424
:1026B0006D1C97E6092801002DE9F041044600252C
:1026C0001E461746880404D405E039462020B0474A
:1026D0006D1C641EF9D52846BDE8F0812DE9F04156
:1026E000044600251E469046C80301D5302700E069
:1026F0002027880404D505E041463846B0476D1CC4
:10270000641EF9D52846BDE8F0810A68531C0B60A9
:10271000107070472DE9F04F002481468BB025469C
:1027200026462746012000F0C3FBDFF8688100221F
:1027300010214046FEF773FA1420FEF771F90020CD
:1027400000F0B6FB5448A3460268C2F824B08246A3
:1027500007E000BFDAF80000406A80B2B0F5FA7F07
:1027600053D810214046FEF74DFA0128F2D0DAF88E
:102770000020C2F824B006E0DAF80000406A80B217
:10278000B0F5FA7F41D810214046FEF73BFA002809
:10279000F2D0DAF800104A6AC1F824B007E000BFAE
:1027A000DAF80000406A80B2B0F5FA7F2DD8102127
:1027B0003848FEF727FA0128F2D0DAF80000D046B0
:1027C000406A012280213348FEF729FAD8F8002018
:1027D0004FF0000AC2F824A0C346DFF8B88006E034
:1027E000DBF80000406A80B2B0F5FA7F0DD8102106
:1027F0004046FEF707FA0028F2D0DBF8002000215F
:10280000516206E0B0F5FA7F03D900200BB0BDE8B5
:10281000F08F10214046FEF7F5F90128DBF80000A3
:10282000406A80B2EED0A0F11501092901D200243E
:1028300003E03D38132800D2012468460DF80A4011
:102840000021425C491C2A445206150E0829F8DB77
:102850001021425C491C32445206160E1829F8DB3E
:102860002021425C491C3A445206170E2829F8DB05
:102870006C08750879086019884204D1002280210B
:102880004046FEF7CCF989F8005089F80140012054
:10289000BCE70000000C0140A00000202DE9F04F33
:1028A000364A0346106840F02000106033494FF06C
:1028B00008080831C1F8008040240C608D150D60B7
:1028C0004E150E600F150F6000F0D0F8106840F044
:1028D000080010602A4AD80601D5146002E04FF4BF
:1028E0008000106098064FF0807901D5156001E0F6
:1028F000C2F8009058064FF0007A01D5166001E04A
:10290000C2F800A018064FF0806B01D5176001E0F7
:10291000C2F800B000F0AAF8C1F800800C600D60A9
:102920000E600F6000F0A2F81448D0F800C04CF020
:10293000080CC0F800C0D80701D0146002E04FF4C2
:1029400080001060980701D5156001E0C2F8009082
:10295000580701D5166001E0C2F800A0180701D59C
:10296000176001E0C2F800B000F080F8C1F8008004
:102970000C600D600E600F60BDE8F08F0C0C014024
:10298000100C01402DE9F04F374903462020086024
:102990004FF00809C1F8009040240C60C5000D609C
:1029A00006010E6047010F6000F060F8DFF8B880A4
:1029B000A8F10808D8F8002042F00802C8F8002062
:1029C000D8064FF4800A08F1040201D5146001E032
:1029D000C2F800A098064FF0807B01D5156001E099
:1029E000C2F800B0580601D5166002E04FF0007042
:1029F0001060180601D5176002E04FF0806010608B
:102A000000F034F8C1F800900C600D600E600F60AB
:102A100000F02CF8D8F800C04CF0080CC8F800C042
:102A2000D80701D0146001E0C2F800A0980701D5D2
:102A3000156001E0C2F800B0580701D5166002E049
:102A40004FF000701060180701D5176002E04FF0DA
:102A50008060106000F00AF8C1F800900C600D6012
:102A60000E600F60BDE8F08F140C01404FF47A70D7
:102A7000401EFDD17047012805D0022805D1BF3185
:102A8000C8B2FFF77FBF7F31FAE7704770B50646DF
:102A900014460D46FA20FDF7C3FF0220FFF772FF30
:102AA0003220FDF7BDFF2E43264346F02000FFF7FE
:102AB00069FF3220FDF7B4FF0620FFF763FF3220E5
:102AC000FDF7AEFF0E20FFF75DFF3220FDF7A8FFF8
:102AD0000C20FFF757FF3220FDF7A2FF0120FFF780
:102AE00051FFBDE870406420FDF79ABF10B5044661
:102AF00006E000BFFFF7BAFF14F8010BFFF7CEFEA8
:102B000020780028F6D1BDE81040FFF7AFBF10B520
:102B10001446FFF7B0FF2046BDE81040FFF7E6BFC0
:102B2000ADF5307DFEF78EF8FFF777FAFFF742F943
:102B3000B348416941F0010141614069002200F060
:102B40000100A49011460B20FEF7DAF80B20FEF7E7
:102B5000C9F8FFF767F9AC48AA494FF416560024A4
:102B60000160C0E901640C25C460C0E904458461CA
:102B7000C461FFF715F808B172B6FEE7FFF774F904
:102B8000A148A24940300160C0E90164C460C0E9C5
:102B900004458461C461FFF703F808B172B6FEE72B
:102BA000FFF7E0F89848642240A9D038FDF7A2FD6D
:102BB00095484838FEF7F0FE002108220846FFF746
:102BC00065FF20229249A8A8FDF7AEFAFA20FDF78A
:102BD00027FF8D4800214838FEF798FFA046A694AD
:102BE0008CA16846A794FFF7BBFB401C82B24FF054
:102BF000FF34234669468448FFF75AF88C4D01227A
:102C000004212846FEF70BF880208DF898027E48B4
:102C100023460122A6A9A038FEF7D5FC50B185A114
:102C20006846FFF79DFB401C82B223466946764802
:102C3000FFF73EF810208DF89802734823460122D2
:102C4000A6A9A038FEF7BFFC50B17AA16846FFF7ED
:102C500087FB401C82B2234669466B48FFF728F881
:102C6000002204212846FDF7DAFF9620FDF7D8FE62
:102C700000224FF400412846FDF7D1FFDFF8C09154
:102C80004FF0020A40F6B83BD9F80410012923D1CD
:102C9000C9F8048040984FF6FF71C0F58050B1FB31
:102CA000F0F268A1A8A80F3AFFF75AFBA8AA0121E1
:102CB0000220FFF72CFF4FF47A70FDF7B1FE409829
:102CC00040F21E71884201D2012200E000224FF43E
:102CD00000412846FDF7A3FF5BA16846FFF740FBD4
:102CE000401C82B2234669464748FEF7E1FF0122B5
:102CF00004212846FDF793FF43488DF898A2234608
:102D00000122A6A9A038FEF75EFC50B149A1684691
:102D1000FFF726FB401C82B2234669463A48FEF77D
:102D2000C7FF394823460122A7A9A038FEF79EFB1A
:102D300050B140A16846FFF713FB401C82B2234606
:102D400069463148FEF7B4FF2F489DF89C72234630
:102D50000122A7A9A038FEF789FB50B135A168462A
:102D6000FFF7FEFA401C82B2234669462648FEF76A
:102D70009FFF9DF89C62002204212846FDF74FFF2B
:102D80000A20FDF74DFE33463A4636A16846FFF766
:102D9000E7FA401C82B2234669461B48FEF788FFCB
:102DA000012135A20846FFF7B2FEC820FDF738FE24
:102DB0001E20FDF735FE4FF480412846FDF727FF22
:102DC0001F48FFF7A7FC012811D00F482DA1803024
:102DD000FFF7C6FA0C49401C82B280312346A1F1AC
:102DE0004000FEF765FF5846FDF71AFE4CE7144811
:102DF00027A10378427804488030FFF7B1FAE9E769
:102E00000010024000380140E8000020004400406B
:102E1000E82E0008436F6E6669677572696E6720F9
:102E200073656E736F722E2E2E200D0A0000000047
:102E3000000C01404572726F722E2E2E200D0A007A
:102E40000000002025640000526561642066726FF6
:102E50006D207468652073656E736F722E2E2E2040
:102E60000D0A00004D53423D2025642C204C534256
:102E70003D2025640D0A000054656D706572617413
:102E8000757265004572726F7221210A0D00000093
:102E900048756D6D75646974793A202564205465B0
:102EA0006D70657261747572653A2025640A0D0053
:102EB0001FB500210091019102910391102103227D
:102EC000084B012808D0002805D1039200916946DB
:102ED0001846FDF7B7FD1FBD0120CDE90010039294
:102EE000F5E70000000C0140200000000000000099
:102EF00000000000000000000000000000000000D2
:102F000000000000000000000000000000000000C1
:102F1000010203040607080900000000010203047F
:102F2000402F00080000002018000000A82300081F
:102F3000582F00081800002018060000B8230008C9
:102F40000000000000000000010000001000000070
:082F5000000000000024F40061
:04000005080000ED02
:00000001FF
