:020000040800F2
:10000000A804002005010008C30C00087B0C0008B0
:10001000C10C00089D0100083D0E00080000000012
:10002000000000000000000000000000C70C0008F5
:100030009F01000800000000C50C0008C90C000862
:100040001F0100081F0100081F0100081F01000810
:100050001F0100081F0100081F0100081F01000800
:100060001F0100081F0100081F0100081F010008F0
:100070001F0100081F0100081F0100081F010008E0
:100080001F0100081F0100081F0100081F010008D0
:100090001F0100081F0100081F0100081F010008C0
:1000A0001F0100081F0100081F0100081F010008B0
:1000B0001F0100081F010008000000001F010008C8
:1000C0001F01000800000000000000001F010008E0
:1000D000000000001F0100081F01000800000000D0
:1000E0001F0100081F0100081F010008DFF810D0E1
:1000F00000F042F800480047F5110008AFF3008017
:10010000A80400200648804706480047FEE7FEE7AF
:10011000FEE7FEE7FEE7FEE7FEE7FEE7FEE7FEE7B7
:100120001D0D0008ED000008D2B201E000F8012B1F
:10013000491EFBD270470022F6E710B513460A4667
:1001400004461946FFF7F0FF204610BD30B50B46B8
:10015000014600202022012409E021FA02F59D42F7
:1001600005D303FA02F5491B04FA02F52844151ECB
:10017000A2F10102F1DC30BD064C074D06E0E0685B
:1001800040F0010394E8070098471034AC42F6D3DE
:10019000FFF7B0FFD0120008F0120008FEE770472A
:1001A00070B5044600F0F4F80546601C02D004481F
:1001B0000078044400F0ECF8401BA042FAD370BD74
:1001C000000000202DE9F84FDFF89C91002409F190
:1001D000040A0AF1040B23460F270BF1040EBBE0BF
:1001E0000125A5402A40AA4276D1DFF880C14E6899
:1001F000A6EB0C0866452BD00DDC032E34D005DCB5
:1002000036B3012E19D0022E2FD11BE0112E16D09D
:10021000122E2AD119E0B8F5881F19D006DCB8F5DE
:10022000803F15D0B8F5801F1FD111E0B8F5001F31
:100230000ED0B8F5041F18D10AE0CB6815E0CB68E2
:100240001B1D12E0CB6808330FE0CB680C330CE0C9
:100250008B682BB1012B4FF0080303D0456104E0FC
:10026000042302E0056100E00023FF2A01D80646CE
:1002700001E000F104064FEA840501D9A5F120054B
:10028000D6F8008007FA05FC28EA0C0803FA05F501
:1002900048EA0508C6F800804D68ED005BD5344D8E
:1002A000AE6946F00106AE61AD6924F0030605F0C3
:1002B000010500952F4D06EB050CDCF80850A6074C
:1002C000360F07FA06F825EA0805DFF8AC80404546
:1002D00003D14FF0000810E03DE0DFF8A08040457A
:1002E00002D14FF0010808E0DFF89480404502D1C8
:1002F0004FF0020801E04FF0030808FA06F848EA58
:100300000508CCF808804D68D9F80060ED034D462B
:1003100001D5164300E096432E604D68DAF8006080
:10032000AD03554601D5164300E096432E604D6857
:10033000DBF80060ED025D4601D5164300E0964310
:100340002E604D68DEF80060AD02754601D516439B
:1003500000E096432E60641C0A6832FA04F57FF4CC
:100360003FAFBDE8F88F000000040140000011100D
:10037000001002400000014000080140000C014054
:10038000001001400AB1016170470904FBE7000059
:100390000148806870470000000000200248816822
:1003A000027811448160704700000020074810B5B2
:1003B000016841F010010160032000F067F800209F
:1003C00000F006F800F024F8002010BD00200240E4
:1003D00070B50D4D04464FF47A712878B1FBF0F0FA
:1003E0000A490968B1FBF0F000F070FB48B9102C25
:1003F00007D200222146501E00F028F800206C6031
:1004000070BD012070BD0000000000200C00002025
:100410000C4808B5816941F001018161816901F0F1
:1004200001010091C16941F08051C161C06900F0D2
:10043000805000900448416821F0E06141F0806103
:10044000416008BD0010024000000140F0B40E4BB6
:100450001B680C46C3F30223C3F10705042D00D922
:100460000425191D072901D2002300E0DB1E012607
:1004700006FA05F1491E214099409E40761E16401D
:100480003143F0BC00F0F0BC0CED00E0064900F098
:10049000070208684FF6FF03184040EA0220034AAB
:1004A00010430860704700000CED00E00000FA0502
:1004B0002DE9F0470F46050061D0434E306800F04B
:1004C0000700B84209D2306820F007003843306096
:1004D000306800F00700B84251D128683B4C8107D2
:1004E00012D5400703D5606840F4E060606028786A
:1004F000000703D5606840F4605060606068A968D8
:1005000020F0F000084360602878C00728D06868B1
:10051000012810D02168022810D0890700292EDA7E
:10052000616821F0030101436160FFF731FF8046FC
:1005300041F288390DE021688903EFE78901EDE791
:10054000FFF726FFA0EB0801494502D90320BDE8CB
:10055000F0876068696800F00C00B0EB810FEFD1A4
:10056000306800F00700B8420BD9306820F007006F
:1005700038433060306800F00700B84201D00120F5
:10058000E5E72878400705D56068E96820F4E06071
:10059000084360602878000706D56068296920F460
:1005A000605040EAC100606000F038F86168084AB5
:1005B000C1F30311515CC840064908600648006851
:1005C000FFF706FF0020C2E70020024000100240B3
:1005D000B81200080C00002004000020044805495F
:1005E00000684968044AC1F30221515CC840704761
:1005F0000C00002000100240C81200080448054901
:1006000000684968044AC1F3C221515CC840704780
:100610000C00002000100240C812000812A185B092
:100620000FC98DE80F0014A0144A006804905168A7
:10063000134801F00C03042B10D0082B0ED1C1F38A
:100640008343C9031DF803000AD5516804AAC1F306
:100650004041515C0A4A5043B0FBF1F005B070478D
:1006600008494843FAE700000203040506070809A1
:100670000A0B0C0D0E0F10100102000000100240BA
:1006800000127A0000093D002DE9F84F040070D0F7
:100690002078C04DC00749D06868C0F381000128A8
:1006A00007D06868C0F38100022809D16868C003D8
:1006B00006D52868800339D560680028E7D035E082
:1006C0006068B0F5803F0BD010B1B0F5A02F11D00D
:1006D000286820F480302860286820F4802002E018
:1006E000286840F480302860606890B1FFF750FEC1
:1006F00006460AE0286840F480202860F0E700BF42
:10070000FFF746FE801B642873D828688003F7D55E
:100710000CE0FFF73DFE064605E000BFFFF738FEA0
:10072000801B6428F0D828688003F7D420789A4E7C
:1007300080074FF001094FF0000839D5686810F0C4
:100740000C0F07D06868C0F38100022809D16868DF
:10075000C00306D42868800714D52069012808D171
:1007600010E02069B0B1C6F80090FFF711FE07460F
:1007700005E00AE1FFF70CFEC01B0228C4D8286878
:100780008007F7D52868616920F0F80040EAC100C9
:1007900028600DE0C6F80080FFF7FAFD074604E088
:1007A000FFF7F6FDC01B022823D828688007F7D47E
:1007B000207800072CD57948A169D9B1C0F80090FC
:1007C000FFF7E6FD074604E0FFF7E2FDC01B022845
:1007D0000FD8686A8007F7D571484FF4FA5100685E
:1007E000B0FBF1F0009000BF0098411E0091FAD2DA
:1007F0000EE080E0C0F80080FFF7CAFD074604E085
:10080000FFF7C6FDC01B022875D8686A8007F7D4B9
:100810002078400760D5E8690027C00008D4E8695F
:1008200040F08050E861E869012700F080500090B6
:100830005C480168C90513D40168834641F480719E
:100840000160FFF7A5FD824606E000BFFFF7A0FDAF
:10085000A0EB0A0064284ED8DBF80000C005F5D5EF
:10086000E06801280AD008B1052813D0286A20F0D2
:1008700001002862286A20F0040002E0286A40F0A3
:1008800001002862E06841F2883B98B1FFF780FDE3
:1008900082460BE0286A40F004002862EEE700BFC1
:1008A000FFF776FDA0EB0A0159455AD8286A800760
:1008B000F6D50CE0FFF76CFD824605E0FFF768FD1A
:1008C000A0EB0A0159454CD8286A8007F6D41FB11D
:1008D000E86920F08050E861E06988B36968C1F395
:1008E0008101022944D00228C6F8608004D0FFF7B5
:1008F0004FFD044638E034E0FFF74AFD074604E0C8
:10090000FFF746FDC01B02282BD828688001F7D4CA
:10091000206AB0F5803F05D16868A16820F40030F6
:1009200008436860D4E908010843696821F4741138
:1009300008436860C6F86090FFF72AFD044606E0A9
:1009400025E000BFFFF724FD001B022809D8286816
:100950008001F7D51BE000BFFFF71AFD001B02283E
:1009600002D90320BDE8F88F28688001F4D40EE096
:100970000128F7D06868226A00F48031914204D1DE
:10098000616A00F47010884201D00120EAE700207B
:10099000E8E70000001002400000424280044242AA
:1009A0000C0000200070004070B5040009D0606A9F
:1009B000002540B125616561A56294F8510040B100
:1009C0000CE0012070BD6068B0F5827FF4D0E56175
:1009D000F2E784F85050204600F040F8022084F8F6
:1009E00051002068016821F040010160A088218940
:1009F00000F4827001F404410843A18901F400610C
:100A00000843217C01F002010843217D01F001012E
:100A10000843218B01F400710843217F01F0380164
:100A2000084394F8201001F080010843218D01F45F
:100A30000051084321680860A069042101EA1040C0
:100A4000216848602068C16921F40061C161656561
:100A5000012084F85100002070BD000030B585B041
:100A6000002400940194029403940068144988427D
:100A700023D11448816941F480518161816901F475
:100A800080510491816941F00401816180690E4DBA
:100A900000F004000490A0200090022001900320A8
:100AA000039069462846FFF78DFB4020CDE90004FE
:100AB000694628460294FFF785FB05B030BD00006B
:100AC00000300140001002400008014010B5401EF7
:100AD000B0F1807F01D3012010BD4FF0E0246061B0
:100AE0000F21601700F0C0F90020A06107202061ED
:100AF000002010BD70B5040004D094F83900002522
:100B000010B106E0012070BD84F83850204600F096
:100B100023F8242084F839002068C16821F40051AA
:100B2000C160204600F0FCF82068016921F4904182
:100B300001612068416921F02A0141612068C16892
:100B400041F40051C160E563202084F8390084F845
:100B50003A00002070BD000030B585B0002400943C
:100B600001940294039400681449884224D11448E3
:100B7000816941F480418161816901F4804104917E
:100B8000816941F00401816180690E4D00F004002B
:100B900004904FF400700090022001900320039015
:100BA00069462846FFF70EFB2815CDE90004694683
:100BB00028460294FFF706FB05B030BD003801401F
:100BC00000100240000801402DE9F843044690F867
:100BD00039001F4616460D4620284CD1C5B1BEB17E
:100BE00094F83800012846D0012084F838004FF0EE
:100BF0000008C4F83C80212084F83900FFF7C8FBC6
:100C0000A6848146E684A068B0F5805F03D004E046
:100C10000120BDE8F883206928B12E465FF0000569
:100C200084F838800EE00026FAE78021204600F0A4
:100C3000D3F8A0B9AEB116F8010B21684860E08C7A
:100C4000401EE084E08C4B464FF0000200970028E5
:100C5000EBD14FF04001204600F0BEF830B1032048
:100C6000D7E735F8020BC0F30800E6E7202084F848
:100C700039000020CDE70220CBE7FEE70F4810B592
:100C80000D4901604FF48271416000218160C160B3
:100C90004FF400720161C0E905123822C0E9072152
:100CA000416281620A21C162FFF77EFE002801D005
:100CB00072B6FEE710BD00000030014010000020B9
:100CC000FEE7FEE770477047FFF768BB10B590B0CE
:100CD00028216846FFF72FFA14210AA8FFF72BFAFC
:100CE0000220009001200490102000240590079419
:100CF0006846FFF7C9FC08B172B6FEE70F20CDE9E0
:100D00000A040C940D9400210AA80E94FFF7D0FB5E
:100D1000002801D072B6FEE710B010BD7047000089
:100D200070B5044600680169E26821F4405111433E
:100D300001612169A0680843616908432168CA68A4
:100D400041F20C639A430243CA6020684169A26978
:100D500021F44071114341611E492068884202D14B
:100D6000FFF74CFC01E0FFF739FC00EBC00101EBA1
:100D70000012606864218000B2FBF0F3B3FBF1F372
:100D80006FF018067343B2FBF0F5B2FBF0F605EB1B
:100D90008305322303EB0515B5FBF1F5B6FBF1F640
:100DA00005F0F00505EB0615B2FBF0F6B2FBF0F02E
:100DB000B0FBF1F06FF01802504306EB800003EB3C
:100DC0000010B0FBF1F0216800F00F0028448860AB
:100DD00070BD0000003801402DE9F04198461746EB
:100DE0000E460446069D1DE0681C1BD02DB1FFF782
:100DF000CFFAA0EB0800A84214D92068C16821F4FA
:100E0000D071C1602068416921F001014161202059
:100E100084F8390084F83A00002084F83800032070
:100E2000BDE8F0812068006836EA000004D00020A8
:100E3000B842D9D00020F3E70120F9E7FEE700002F
:100E40000FB4084B10B504A902AA039800F02CF8BF
:100E5000044602A9002000F0C8F9204610BC5DF845
:100E600014FB0000EB1100080907090E002804DB41
:100E700000F1E02080F80014704700F00F0000F14E
:100E8000E02080F8141D704702E008C8121F08C156
:100E9000002AFAD170477047002001E001C1121FFB
:100EA000002AFBD1704700002DE9FF4F8BB0884628
:100EB0000546002606E025280BD0DDE90D129047F7
:100EC0006D1C761C28780028F5D10FB03046BDE89F
:100ED000F08F0024A146A2460122AE4900E004435F
:100EE00015F8013F203B02FA03F00842F7D12878B9
:100EF0002A2810D06FF02F022878A0F1300109299C
:100F000015D809EB890102EB410144F0020400EB22
:100F100001096D1CF0E758F8041B5FEA010903D5CD
:100F200044F40054C9F1000944F002046D1C28780F
:100F30002E2817D115F8010F44F004042A280ED0EA
:100F40006FF02F022878A0F1300109290AD80AEBA6
:100F50008A0102EB410100EB010A6D1CF2E758F82F
:100F600004AB6D1C28786C280FD006DC4C2817D0F9
:100F700068280DD06A2814D104E0742810D07A288B
:100F80000FD10DE044F400140AE044F4801401E0B1
:100F900044F440146978814202D104F580146D1C38
:100FA0006D1C2878692865D006DC00288DD0632860
:100FB00027D0642806D15DE06E2808D073282AD097
:100FC000752877D0DDE90D129047761CE0E0C4F378
:100FD0000250022809D003280DD0D8F800100428A8
:100FE0000DD00E6008F10408D2E0D8F80010F21716
:100FF000C1E90062F6E7D8F800100E80F2E70E7043
:10100000F0E718F8041B8DF8001000208DF801009F
:10101000EB46012003E058F804BB4FF0FF306107B6
:101020004FF0000701D40AE07F1C57450DDA8742D4
:10103000FADB1BF807100029F6D106E07F1C874277
:10104000FCDB1BF807100029F8D1DDE90D23A9EB23
:1010500007008146214600F0B1F83044C61904E08B
:10106000DDE90D121BF8010B90477F1EF8D22146D7
:10107000484688E058F8040BC4F302514FF00A0BBD
:10108000032900D100B2042900D140B2002802DABD
:1010900040422D2102E0210505D52B218DF8241099
:1010A000012104E006E0E10710D02021F6E708AFB7
:1010B000089113E058F8040BC4F302514FF00A0BE7
:1010C000032900D180B2042900D1C0B20021EEE78B
:1010D0005946FFF73BF8303107F8011D0028F7D1DA
:1010E000ADEB070000F1200B600702D524F480343B
:1010F00001E04FF0010ADA4502DDAAEB0B0000E047
:101100000020824600EB0B0108980144A9EB010086
:101110000A90E00306D4DDE90D2321460A9800F089
:101120004DF806444FF0000908E009A911F809003C
:10113000DDE90D12904709F10109761C08998945EE
:10114000F3DBE0030CD5DDE90D2321460A9800F01E
:1011500035F8064404E0DDE90D1230209047761C96
:10116000BAF10001AAF1010AF5DC05E0DDE90D1292
:1011700017F8010B9047761CBBF10001ABF1010B96
:10118000F4DC0A982146DDE90D2300F005F8064459
:101190006D1C97E6092801002DE9F0410446002561
:1011A0001E461746880404D405E039462020B0477F
:1011B0006D1C641EF9D52846BDE8F0812DE9F0418B
:1011C000044600251E469046C80301D5302700E09E
:1011D0002027880404D505E041463846B0476D1CF9
:1011E000641EF9D52846BDE8F0810A68531C0B60DF
:1011F00010707047C6B0FFF7D9F8FFF767FD0024FD
:1012000026484094419442944394816941F00401FA
:101210008161816901F004014491816941F0080113
:10122000816180691E4D00F0080044900022042175
:101230002846FFF7A7F8042040900120CDE941049B
:101240000220439040A92846FEF7BCFFFFF716FD99
:101250001548144901604FF41651C0E901140C21DE
:10126000C460C0E904418461C461FFF743FC08B174
:1012700072B6FEE74FF0FF344FF47A7505220BA1EA
:101280006846FFF7DDFD401C82B2234669460648EA
:10129000FFF79AFC2846FEF783FFEFE700100240B5
:1012A000000C0140003801406800002048656C6C6B
:1012B0006F202564200D0A000000000000000000DF
:1012C00001020304060708090000000001020304EC
:1012D000F01200080000002010000000880E000836
:1012E000001300081000002098040000980E000869
:1012F0000100000010000000000000000024F400C5
:04000005080000ED02
:00000001FF
