:020000040800F2
:10000000B80500200501000803150008DB130008EF
:10001000011500089D0100086D190008000000008E
:100020000000000000000000000000003D16000875
:100030009F01000800000000051500083F16000899
:100040001F0100081F0100081F0100081F01000810
:100050001F0100081F0100081F0100081F01000800
:100060001F0100081F0100081F0100081F010008F0
:100070001F0100081F0100081F0100081F010008E0
:100080001F0100081F0100081F0100081F010008D0
:100090001F0100081F0100081F0100081F010008C0
:1000A0001F0100081F0100081F0100081F010008B0
:1000B0001F0100081F010008000000001F010008C8
:1000C0001F01000800000000000000001F010008E0
:1000D000000000001F0100081F01000800000000D0
:1000E0001F0100081F0100081F010008DFF810D0E1
:1000F00000F042F80048004731210008AFF30080CB
:10010000B80500200648804706480047FEE7FEE79E
:10011000FEE7FEE7FEE7FEE7FEE7FEE7FEE7FEE7B7
:1001200093160008ED000008D2B201E000F8012BA0
:10013000491EFBD270470022F6E710B513460A4667
:1001400004461946FFF7F0FF204610BD30B50B46B8
:10015000014600202022012409E021FA02F59D42F7
:1001600005D303FA02F5491B04FA02F52844151ECB
:10017000A2F10102F1DC30BD064C074D06E0E0685B
:1001800040F0010394E8070098471034AC42F6D3DE
:10019000FFF7B0FF7024000890240008FEE77047C6
:1001A00070B5044600F000F90546601C02D0044812
:1001B0000078044400F0F8F8401BA042FAD370BD68
:1001C000040000202DE9F84FDFF89C91002409F18C
:1001D000040A0AF1040B23460F270BF1040EBBE0BF
:1001E0000125A5402A40AA4276D1DFF880C14E6899
:1001F000A6EB0C0866452BD00DDC032E34D005DCB5
:1002000036B3012E19D0022E2FD11BE0112E16D09D
:10021000122E2AD119E0B8F5881F19D006DCB8F5DE
:10022000803F15D0B8F5801F1FD111E0B8F5001F31
:100230000ED0B8F5041F18D10AE0CB6815E0CB68E2
:100240001B1D12E0CB6808330FE0CB680C330CE0C9
:100250008B682BB1012B4FF0080303D0456104E0FC
:10026000042302E0056100E00023FF2A01D80646CE
:1002700001E000F104064FEA840501D9A5F120054B
:10028000D6F8008007FA05FC28EA0C0803FA05F501
:1002900048EA0508C6F800804D68ED005BD5344D8E
:1002A000AE6946F00106AE61AD6924F0030605F0C3
:1002B000010500952F4D06EB050CDCF80850A6074C
:1002C000360F07FA06F825EA0805DFF8AC80404546
:1002D00003D14FF0000810E03DE0DFF8A08040457A
:1002E00002D14FF0010808E0DFF89480404502D1C8
:1002F0004FF0020801E04FF0030808FA06F848EA58
:100300000508CCF808804D68D9F80060ED034D462B
:1003100001D5164300E096432E604D68DAF8006080
:10032000AD03554601D5164300E096432E604D6857
:10033000DBF80060ED025D4601D5164300E0964310
:100340002E604D68DEF80060AD02754601D516439B
:1003500000E096432E60641C0A6832FA04F57FF4CC
:100360003FAFBDE8F88F000000040140000011100D
:10037000001002400000014000080140000C014054
:10038000001001408068084000D001207047C2681A
:1003900021EA02030A4043EA0241016170470AB1BF
:1003A000016170470904FBE701488068704700005D
:1003B000040000200248816802781144816070477F
:1003C00004000020074810B5016841F010010160E9
:1003D000032000F067F8002000F006F800F024F891
:1003E000002010BD0020024070B50D4D04464FF4B2
:1003F0007A712878B1FBF0F00A490968B1FBF0F096
:1004000000F0C1FD48B9102C07D200222146501E31
:1004100000F028F800206C6070BD012070BD000065
:1004200004000020100000200C4808B5816941F04C
:1004300001018161816901F001010091C16941F00F
:100440008051C161C06900F080500090044841684B
:1004500021F0E06141F00071416008BD00100240F0
:1004600000000140F0B40E4B1B680C46C3F302239E
:10047000C3F10705042D00D90425191D072901D250
:10048000002300E0DB1E012606FA05F1491E21408B
:1004900099409E40761E16403143F0BC01F07CBA74
:1004A0000CED00E0064900F0070208684FF6FF0374
:1004B000184040EA0220034A1043086070470000D9
:1004C0000CED00E00000FA052DE9F0470F460500AD
:1004D00061D0434E306800F00700B84209D230685E
:1004E00020F0070038433060306800F00700B84261
:1004F00051D128683B4C810712D5400703D560686D
:1005000040F4E06060602878000703D5606840F43C
:10051000605060606068A96820F0F0000843606087
:100520002878C00728D06868012810D021680228E0
:1005300010D0890700292EDA616821F003010143F8
:100540006160FFF731FF804641F288390DE0216894
:100550008903EFE78901EDE7FFF726FFA0EB08012C
:10056000494502D90320BDE8F0876068696800F05A
:100570000C00B0EB810FEFD1306800F00700B842FB
:100580000BD9306820F0070038433060306800F045
:100590000700B84201D00120E5E72878400705D5DB
:1005A0006068E96820F4E06008436060287800072C
:1005B00006D56068296920F4605040EAC100606097
:1005C00000F038F86168084AC1F30311515CC84073
:1005D0000649086006480068FFF706FF0020C2E7EA
:1005E00000200240001002405824000810000020A3
:1005F000080000200448054900684968044AC1F31E
:100600000221515CC84070471000002000100240D9
:10061000682400080448054900684968044AC1F391
:10062000C221515CC84070471000002000100240F9
:100630006824000812A185B00FC98DE80F0014A02E
:10064000144A006804905168134801F00C03042B0D
:1006500010D0082B0ED1C1F38343C9031DF803004A
:100660000AD5516804AAC1F34041515C0A4A50437B
:10067000B0FBF1F005B0704708494843FAE70000C5
:1006800002030405060708090A0B0C0D0E0F1010D3
:10069000010200000010024000127A0000093D0033
:1006A0002DE9F84F040070D02078C04DC00749D024
:1006B0006868C0F38100012807D06868C0F3810032
:1006C000022809D16868C00306D52868800339D597
:1006D00060680028E7D035E06068B0F5803F0BD057
:1006E00010B1B0F5A02F11D0286820F48030286018
:1006F000286820F4802002E0286840F480302860D8
:10070000606890B1FFF750FE06460AE0286840F4A2
:1007100080202860F0E700BFFFF746FE801B6428BA
:1007200073D828688003F7D50CE0FFF73DFE064636
:1007300005E000BFFFF738FE801B6428F0D828686A
:100740008003F7D420789A4E80074FF001094FF0CC
:10075000000839D5686810F00C0F07D06868C0F33E
:100760008100022809D16868C00306D42868800780
:1007700014D52069012808D110E02069B0B1C6F86D
:100780000090FFF711FE074605E00AE1FFF70CFEB7
:10079000C01B0228C4D828688007F7D5286861697B
:1007A00020F0F80040EAC10028600DE0C6F80080A3
:1007B000FFF7FAFD074604E0FFF7F6FDC01B02282D
:1007C00023D828688007F7D4207800072CD57948EB
:1007D000A169D9B1C0F80090FFF7E6FD074604E033
:1007E000FFF7E2FDC01B02280FD8686A8007F7D523
:1007F00071484FF4FA510068B0FBF1F0009000BF6F
:100800000098411E0091FAD20EE080E0C0F800800E
:10081000FFF7CAFD074604E0FFF7C6FDC01B02282C
:1008200075D8686A8007F7D42078400760D5E869F2
:100830000027C00008D4E86940F08050E861E8690A
:10084000012700F0805000905C480168C90513D46E
:100850000168834641F480710160FFF7A5FD82467F
:1008600006E000BFFFF7A0FDA0EB0A0064284ED809
:10087000DBF80000C005F5D5E06801280AD008B112
:10088000052813D0286A20F001002862286A20F089
:10089000040002E0286A40F001002862E06841F2AA
:1008A000883B98B1FFF780FD82460BE0286A40F054
:1008B00004002862EEE700BFFFF776FDA0EB0A0117
:1008C00059455AD8286A8007F6D50CE0FFF76CFD29
:1008D000824605E0FFF768FDA0EB0A0159454CD8B8
:1008E000286A8007F6D41FB1E86920F08050E861DB
:1008F000E06988B36968C1F38101022944D0022804
:10090000C6F8608004D0FFF74FFD044638E034E0BD
:10091000FFF74AFD074604E0FFF746FDC01B02282B
:100920002BD828688001F7D4206AB0F5803F05D124
:100930006868A16820F4003008436860D4E90801C1
:100940000843696821F4741108436860C6F8609030
:10095000FFF72AFD044606E025E000BFFFF724FD6F
:10096000001B022809D828688001F7D51BE000BFCA
:10097000FFF71AFD001B022802D90320BDE8F88FFB
:1009800028688001F4D40EE00128F7D06868226A54
:1009900000F48031914204D1616A00F47010884201
:1009A00001D00120EAE70020E8E700000010024043
:1009B00000004242800442421000002000700040CB
:1009C00070B5040009D0606A002540B125616561F9
:1009D000A56294F8510040B10CE0012070BD606840
:1009E000B0F5827FF4D0E561F2E784F850502046FC
:1009F00000F040F8022084F851002068016821F0DE
:100A000040010160A088218900F4827001F4044152
:100A10000843A18901F400610843217C01F002012F
:100A20000843217D01F001010843218B01F400718D
:100A30000843217F01F03801084394F8201001F0A9
:100A400080010843218D01F40051084321680860AA
:100A5000A069042101EA1040216848602068C1694A
:100A600021F40061C1616565012084F85100002016
:100A700070BD000030B585B000240094019402944C
:100A8000039400681449884223D11448816941F4D1
:100A900080518161816901F480510491816941F043
:100AA0000401816180690E4D00F004000490A020D3
:100AB0000090022001900320039069462846FFF72A
:100AC00081FB4020CDE90004694628460294FFF7E7
:100AD00079FB05B030BD000000300140001002403D
:100AE000000801402DE9F84F04464068002598466B
:100AF00016460F464FF0040BB0F5827F01D1A06877
:100B000088B194F85000012818D0012084F85000D2
:100B1000FFF74AFC814694F851004FF0000A012883
:100B20000ED0022582E084F851B013460A462046D2
:100B3000CDF8008000F036F9BDE8F88F0220FBE721
:100B4000002F72D0002E70D084F851B0C4F854A099
:100B5000A763A687E687C4F830A0A4F834A0A4F859
:100B600036A0C4F840A0C4F844A0A068B0F5004F77
:100B700009D12068016821F0400101602068016806
:100B800021F48041016020680168490603D40168AE
:100B900041F040010160E068D8B139E02068816827
:100BA000C90709D0007BA16B0870A06B401CA06333
:100BB000E08F401EE0870CE0FFF7F6FBA0EB090199
:100BC000414503D3B8F1FF3F03D036E0B8F1000F41
:100BD00033D0E08F0028E1D11DE020688168C9078B
:100BE00009D0C068A16B0880A06B801CA063E08F57
:100BF000401EE0870CE0FFF7D7FBA0EB0901414561
:100C000003D3B8F1FF3F03D017E0B8F1000F14D0C1
:100C1000E08F0028E1D14A464146204600F073FCAF
:100C200008B120206065606D00B10125012084F8C5
:100C3000510084F850A028467EE70325F6E72DE909
:100C4000F84F044690F8500000271D461646894686
:100C500001280DD04FF0010B84F850B0FFF7A4FB32
:100C6000804694F85100BA46012804D0022793E048
:100C70000220BDE8F88FB9F1000F73D0002E71D0BB
:100C8000032084F85100C4F854A0C4F83090A6861C
:100C9000E686C4F838A0A4F83CA0A4F83EA0C4F8A6
:100CA00044A0C4F840A0A068B0F5004F09D1206866
:100CB000016821F0400101602068016841F4804131
:100CC000016020680168490603D4016841F04001D1
:100CD0000160E068B0F5006F606803D030B3012EAA
:100CE00024D041E008B1012E1CD1206B216800887E
:100CF000C86006E020688168890709D5216B0988EA
:100D0000C160206B801C2063E08E401EE08609E0FD
:100D1000FFF74AFBA0EB0800A84202D3681C01D0F1
:100D200031E07DB3E08E0028E4D120E0206B216823
:100D30000078087306E020688168890709D5216B6F
:100D400009780173206B401C2063E08E401EE08612
:100D50000AE0FFF729FBA0EB0800A84203D3681CB8
:100D600002D010E017E06DB1E08E0028E3D14246DA
:100D70002946204600F0F5FB08B120206065A068F8
:100D800018B106E0FFE7032706E02068C168806825
:100D90000090606D00B1012784F851B084F850A034
:100DA000384666E72DE9F84F044690F850000027D2
:100DB0000A9E1D4692468B464FF0010901280ED02F
:100DC000012084F85000FFF7EFFA804694F85100B4
:100DD000616801280CD0B1F5827F07D102E00220C2
:100DE000BDE8F88FA16809B9042801D00227C2E044
:100DF000BBF1000F27D0BAF1000F24D01DB394F837
:100E00005100042802D0052084F8510000206065BC
:100E1000C4F838A0E587A587C4F830B0E586A58674
:100E20002064606420680168490603D4016841F0C9
:100E300040010160E068B0F5006F606805D0E8B37C
:100E4000012D46D07FE0012795E008B1012D39D171
:100E5000206B21680088C860206B801C2063E08EB6
:100E6000401EE0862EE02068816889070FD5E18E5C
:100E700069B1B9F1010F0AD1216B0988C160206BFA
:100E8000801C2063E08E401EE0864FF00009206841
:100E90008168C9070CD0E18F51B1C068A16B08808F
:100EA000A06B801CA063E08F401EE0874FF001091B
:100EB000FFF77AFAA0EB0800B04200E009E001D3A6
:100EC000701C50D1E08E0028CDD1E08F0028CAD10F
:100ED0003FE0206B216800780873206B401C206382
:100EE000E08E401EE0862EE02068816889070FD5DD
:100EF000E18E69B1B9F1010F0AD1216B0978017353
:100F0000206B401C2063E08E401EE0864FF00009FD
:100F100020688168C9070CD0E18F51B1C068A16B0E
:100F20000870A06B401CA063E08F401EE0874FF06C
:100F30000109FFF739FAA0EB0800B04202D3701C98
:100F400001D010E07EB1E08E0028CDD1E08F0028E6
:100F5000CAD142463146204600F003FB28B10127A2
:100F60002020606507E0032705E0A06818B9206825
:100F7000C16880680090012084F85100002084F846
:100F8000500038462CE710B5401EB0F1807F01D3E9
:100F9000012010BD4FF0E02460610F21601700F0C8
:100FA000FBFC0020A06107202061002010BD000094
:100FB00070B590F83C20012A23D0012480F83C40F1
:100FC000022280F83D2003685A689D6822F070066E
:100FD0000A6832435A600C4B02689A4205D0B2F15B
:100FE000804F02D0094B9A4204D1496825F0800312
:100FF0001943916080F83D40002180F83C1008467C
:1010000070BD022070BD0000002C014000040040B3
:1010100090F83D10012901D001207047022180F88D
:101020003D1000680949884205D0B0F1804F02D0D8
:101030000749884204D1816801F00701062903D0DD
:10104000016841F00101016000207047002C01405F
:101050000004004000B585B000210091019102918B
:10106000039100680F4988421AD10F48816941F005
:10107000080181618069694600F008000490102031
:1010800000900220019003900848FFF79BF8084861
:10109000416821F4406141F0E06141F40061416048
:1010A00005B000BD0004004000100240000C0140EB
:1010B0000000014010B5044690F83C0001280AD019
:1010C000012084F83C0042B1042A0AD0082A0CD03E
:1010D0000C2A11D10DE0022010BD206800F016FB93
:1010E0000AE0206800F03AFB06E0206800F062FBAE
:1010F00002E0206800F08AFB002084F83C0010BD6C
:1011000010B5040003D094F83D0010B107E00120B1
:1011100010BD002084F83C00204600F01FF802209B
:1011200084F83D00211D206800F0B4FA012084F805
:10113000460084F83E0084F83F0084F8400084F8BC
:10114000410084F8420084F8430084F8440084F8A5
:10115000450084F83D00002010BD000008B500687F
:101160000649884208D10648C16941F00201C161BF
:10117000C06900F00200009008BD000000040040BB
:101180000010024010B50446022249B104290ED0D5
:10119000082913D094F84100012816D0012010BD71
:1011A00094F83E000128F9D184F83E200FE094F82D
:1011B0003F000128F2D184F83F2008E094F8400075
:1011C0000128EBD184F8402001E084F8412001227D
:1011D000206800F08DFA0E492068884203D1426CE5
:1011E00042F4004242642068884205D0B0F1804F4A
:1011F00002D00849884204D1816801F0070106291C
:1012000003D0016841F001010160002010BD000021
:10121000002C01400004004070B5040004D094F894
:101220003900002510B106E0012070BD84F8385067
:10123000204600F023F8242084F839002068C16893
:1012400021F40051C160204600F002FB20680169D2
:1012500021F4904101612068416921F02A01416136
:101260002068C16841F40051C160E563202084F822
:10127000390084F83A00002070BD000070B586B0D7
:1012800000240094019402940394234E036823499C
:1012900002200322224DB34219D18B6943F48043CB
:1012A0008B618B6903F4804304938B6943F00403DF
:1012B0008B618969039201F0040104910102CDE977
:1012C000001069462846FEF77DFF28151BE0154EE5
:1012D000B3421FD1CB6943F40033CB61CB6903F434
:1012E000003304938B6943F004038B618969039293
:1012F00001F0040104910421CDE90010694628465B
:10130000FEF760FF0820CDE90004694628460294F4
:10131000FEF758FF06B070BD0038014000100240D3
:1013200000080140004400402DE9F843044690F8CD
:1013300039001F4616460D4620284CD1C5B1BEB116
:1013400094F83800012846D0012084F838004FF086
:101350000008C4F83C80212084F83900FFF724F805
:10136000A6848146E684A068B0F5805F03D004E0DF
:101370000120BDE8F883206928B12E465FF0000502
:1013800084F838800EE00026FAE78021204600F03D
:10139000BBFAA0B9AEB116F8010B21684860E08C29
:1013A000401EE084E08C4B464FF00002009700287E
:1013B000EBD14FF04001204600F0A6FA30B10320F7
:1013C000D7E735F8020BC0F30800E6E7202084F8E1
:1013D00039000020CDE70220CBE7FEE770B586B0EC
:1013E000002418480094019402940394816941F008
:1013F00020018161816901F020010491816941F03E
:1014000004018161816901F004010491816941F065
:101410000801816180690C4E00F0080044F2EC750F
:101420000490002229463046FEF7B9FF01200095BE
:10143000CDE901040220039069463046FEF7C2FE62
:1014400006B070BD00100240000C01400F4810B5FE
:101450000D4901604FF482714160002181600122D9
:10146000C160C0E90412520282613822C0E907213A
:10147000416281620A21C162FFF7A2FA002801D00D
:1014800072B6FEE710BD00000030014014000020DD
:1014900010B58AB0002407941C2168460894FEF712
:1014A0004AFE1648144901606C21C0E901144FF648
:1014B000FF71C0E903148461FFF722FE08B172B620
:1014C000FEE7079407A90D480894FFF771FD08B1DE
:1014D00072B6FEE700940194029400226946074820
:1014E0000494FFF7E7FD08B172B6FEE70348FFF783
:1014F000B1FD0AB010BD0000000400406C000020E7
:10150000FEE7FEE77047F8B5044640684FF4827383
:10151000984217D1A0684FF48065B0F5004F01D014
:10152000A8420FD12068066826F040060660606871
:10153000984207D1A068A84204D100920B4600222D
:10154000012103E000920B4600228021204600F09A
:1015500019F8002804D0606D40F020006065032079
:10156000F8BD38B50B46009204460022802100F0F9
:1015700009F8002804D0606D40F020006065032069
:1015800038BD00002DE9F8431E46914688460446C2
:10159000089DFEF709FF401B351AFEF705FF0746B9
:1015A00025480068C0F3CB30684338E0701C37D062
:1015B000FEF7FAFEC01BA84203D215B1009860B333
:1015C0002CE02068416821F0E00141606068B0F5DE
:1015D000827F0BD1A068B0F5004F02D0B0F5806FCC
:1015E00004D12068016821F040010160A06AB0F5D3
:1015F000005F09D12068016821F400510160206872
:10160000016841F400510160012084F8510000207C
:1016100084F850000320BDE8F8830025401E0090A8
:101620002068816838EA010004D000214945BDD115
:101630000020F0E70121F9E7100000207047FEF7D5
:10164000B9BE10B590B028216846FEF774FD14218C
:101650000AA8FEF770FD02200090012004901020DF
:101660000024059007946846FFF71AF808B172B68F
:10167000FEE70F20CDE90A040C940D9400210AA87E
:101680000E94FEF721FF002801D072B6FEE710B0DD
:1016900010BD704770B50268134B144C4FF0804674
:1016A000984203D0B04201D0A04203D122F070058D
:1016B0004A682A43984203D0B04201D0A04203D1E5
:1016C00022F44074CA6822434C6922F0800222430B
:1016D00002608A68C2620A688262984201D109691E
:1016E00001630121416170BD002C014000040040F4
:1016F00010B501F01F030121046A99408C43046274
:10170000016A9A401143016210BD000030B5026ABF
:1017100022F001020262026A4368846924F07305C0
:101720000C682C4322F002058A682A430A4DA8421D
:101730000BD122F00805CA6823F440732A434D698F
:1017400022F004021D438B692B4343608461496886
:101750004163026230BD0000002C014030B5026AD6
:1017600022F010020262026A436884690D6824F460
:10177000E64444EA05248D6822F0200242EA05127C
:101780000B4DA8420ED1CD6822F0800242EA05122C
:101790004D6923F4406343EA85038D6922F04002DA
:1017A00043EA85034360846149688163026230BD16
:1017B000002C014030B5026A22F480720262036A92
:1017C0004268C46923F4007324F073050C682C4349
:1017D0008D6843EA05230C4DA8420ED1CD6823F451
:1017E000006343EA05234D6922F4405242EA0512A0
:1017F0008D6923F4806342EA05124260C46149683E
:10180000C163036230BD0000002C014030B5026AA4
:1018100022F480520262046A4268C3690D6823F4AC
:10182000E64343EA05238D6824F4005444EA053472
:10183000064DA84204D14D6922F4804242EA851245
:101840004260C36149680164046230BD002C0140FC
:1018500070B5044600680169E26821F44051114303
:1018600001612169A0680843616908432168CA6869
:1018700041F20C639A430243CA6020684169A2693D
:1018800021F44071114341611E492068884202D110
:10189000FEF7C0FE01E0FEF7ADFE00EBC00101EB7C
:1018A0000012606864218000B2FBF0F3B3FBF1F337
:1018B0006FF018067343B2FBF0F5B2FBF0F605EBE0
:1018C0008305322303EB0515B5FBF1F5B6FBF1F605
:1018D00005F0F00505EB0615B2FBF0F6B2FBF0F0F3
:1018E000B0FBF1F06FF01802504306EB800003EB01
:1018F0000010B0FBF1F0216800F00F002844886070
:1019000070BD0000003801402DE9F04198461746AF
:101910000E460446069D1DE0681C1BD02DB1FEF747
:1019200043FDA0EB0800A84214D92068C16821F447
:10193000D071C1602068416921F00101416120201E
:1019400084F8390084F83A00002084F83800032035
:10195000BDE8F0812068006836EA000004D000206D
:10196000B842D9D00020F3E70120F9E7FEE70000F4
:101970000FB4084B10B504A902AA039800F02CF884
:10198000044602A9002000F0C8F9204610BC5DF80A
:1019900014FB00001B1D00080907090E002804DBCA
:1019A00000F1E02080F80014704700F00F0000F113
:1019B000E02080F8141D704702E008C8121F08C11B
:1019C000002AFAD170477047002001E001C1121FC0
:1019D000002AFBD1704700002DE9FF4F8BB08846ED
:1019E0000546002606E025280BD0DDE90D129047BC
:1019F0006D1C761C28780028F5D10FB03046BDE864
:101A0000F08F0024A146A2460122AE4900E0044323
:101A100015F8013F203B02FA03F00842F7D128787D
:101A20002A2810D06FF02F022878A0F13001092960
:101A300015D809EB890102EB410144F0020400EBE7
:101A400001096D1CF0E758F8041B5FEA010903D592
:101A500044F40054C9F1000944F002046D1C2878D4
:101A60002E2817D115F8010F44F004042A280ED0AF
:101A70006FF02F022878A0F1300109290AD80AEB6B
:101A80008A0102EB410100EB010A6D1CF2E758F8F4
:101A900004AB6D1C28786C280FD006DC4C2817D0BE
:101AA00068280DD06A2814D104E0742810D07A2850
:101AB0000FD10DE044F400140AE044F4801401E076
:101AC00044F440146978814202D104F580146D1CFD
:101AD0006D1C2878692865D006DC00288DD0632825
:101AE00027D0642806D15DE06E2808D073282AD05C
:101AF000752877D0DDE90D129047761CE0E0C4F33D
:101B00000250022809D003280DD0D8F8001004286C
:101B10000DD00E6008F10408D2E0D8F80010F217DA
:101B2000C1E90062F6E7D8F800100E80F2E70E7007
:101B3000F0E718F8041B8DF8001000208DF8010064
:101B4000EB46012003E058F804BB4FF0FF3061077B
:101B50004FF0000701D40AE07F1C57450DDA874299
:101B6000FADB1BF807100029F6D106E07F1C87423C
:101B7000FCDB1BF807100029F8D1DDE90D23A9EBE8
:101B800007008146214600F0B1F83044C61904E050
:101B9000DDE90D121BF8010B90477F1EF8D221469C
:101BA000484688E058F8040BC4F302514FF00A0B82
:101BB000032900D100B2042900D140B2002802DA82
:101BC00040422D2102E0210505D52B218DF824105E
:101BD000012104E006E0E10710D02021F6E708AF7C
:101BE000089113E058F8040BC4F302514FF00A0BAC
:101BF000032900D180B2042900D1C0B20021EEE750
:101C00005946FEF7A3FA303107F8011D0028F7D135
:101C1000ADEB070000F1200B600702D524F48034FF
:101C200001E04FF0010ADA4502DDAAEB0B0000E00B
:101C30000020824600EB0B0108980144A9EB01004B
:101C40000A90E00306D4DDE90D2321460A9800F04E
:101C50004DF806444FF0000908E009A911F8090001
:101C6000DDE90D12904709F10109761C08998945B3
:101C7000F3DBE0030CD5DDE90D2321460A9800F0E3
:101C800035F8064404E0DDE90D1230209047761C5B
:101C9000BAF10001AAF1010AF5DC05E0DDE90D1257
:101CA00017F8010B9047761CBBF10001ABF1010B5B
:101CB000F4DC0A982146DDE90D2300F005F806441E
:101CC0006D1C97E6092801002DE9F0410446002526
:101CD0001E461746880404D405E039462020B04744
:101CE0006D1C641EF9D52846BDE8F0812DE9F04150
:101CF000044600251E469046C80301D5302700E063
:101D00002027880404D505E041463846B0476D1CBD
:101D1000641EF9D52846BDE8F0810A68531C0B60A3
:101D2000107070472DE9F04F002481468BB0254696
:101D300026462746012000F073FBDFF86881002269
:101D400010214046FEF72BFB1420FEF729FA002055
:101D500000F066FB5448A3460268C2F824B08246ED
:101D600007E000BFDAF80000406A80B2B0F5FA7F01
:101D700053D810214046FEF705FB0128F2D0DAF8CF
:101D80000020C2F824B006E0DAF80000406A80B211
:101D9000B0F5FA7F41D810214046FEF7F3FA00284B
:101DA000F2D0DAF800104A6AC1F824B007E000BFA8
:101DB000DAF80000406A80B2B0F5FA7F2DD8102121
:101DC0003848FEF7DFFA0128F2D0DAF80000D046F2
:101DD000406A012280213348FEF7E1FAD8F800205A
:101DE0004FF0000AC2F824A0C346DFF8B88006E02E
:101DF000DBF80000406A80B2B0F5FA7F0DD8102100
:101E00004046FEF7BFFA0028F2D0DBF800200021A0
:101E1000516206E0B0F5FA7F03D900200BB0BDE8AF
:101E2000F08F10214046FEF7ADFA0128DBF80000E4
:101E3000406A80B2EED0A0F11501092901D2002438
:101E400003E03D38132800D2012468460DF80A400B
:101E50000021425C491C2A445206150E0829F8DB71
:101E60001021425C491C32445206160E1829F8DB38
:101E70002021425C491C3A445206170E2829F8DBFF
:101E80006C08750879086019884204D10022802105
:101E90004046FEF784FA89F8005089F80140012095
:101EA000BCE70000000C01406C0000202DE9F04F61
:101EB000364A0346106840F02000106033494FF066
:101EC00008080831C1F8008040240C608D150D60B1
:101ED0004E150E600F150F6000F0D0F8106840F03E
:101EE000080010602A4AD80601D5146002E04FF4B9
:101EF0008000106098064FF0807901D5156001E0F0
:101F0000C2F8009058064FF0007A01D5166001E043
:101F1000C2F800A018064FF0806B01D5176001E0F1
:101F2000C2F800B000F0AAF8C1F800800C600D60A3
:101F30000E600F6000F0A2F81448D0F800C04CF01A
:101F4000080CC0F800C0D80701D0146002E04FF4BC
:101F500080001060980701D5156001E0C2F800907C
:101F6000580701D5166001E0C2F800A0180701D596
:101F7000176001E0C2F800B000F080F8C1F80080FE
:101F80000C600D600E600F60BDE8F08F0C0C01401E
:101F9000100C01402DE9F04F37490346202008601E
:101FA0004FF00809C1F8009040240C60C5000D6096
:101FB00006010E6047010F6000F060F8DFF8B8809E
:101FC000A8F10808D8F8002042F00802C8F800205C
:101FD000D8064FF4800A08F1040201D5146001E02C
:101FE000C2F800A098064FF0807B01D5156001E093
:101FF000C2F800B0580601D5166002E04FF000703C
:102000001060180601D5176002E04FF08060106084
:1020100000F034F8C1F800900C600D600E600F60A5
:1020200000F02CF8D8F800C04CF0080CC8F800C03C
:10203000D80701D0146001E0C2F800A0980701D5CC
:10204000156001E0C2F800B0580701D5166002E043
:102050004FF000701060180701D5176002E04FF0D4
:102060008060106000F00AF8C1F800900C600D600C
:102070000E600F60BDE8F08F140C01404FF47A70D1
:10208000401EFDD17047012805D0022805D1BF317F
:10209000C8B2FFF77FBF7F31FAE7704770B50646D9
:1020A00014460D46FA20FEF77BF80220FFF772FF78
:1020B0003220FEF775F82E43264346F02000FFF746
:1020C00069FF3220FEF76CF80620FFF763FF32202D
:1020D000FEF766F80E20FFF75DFF3220FEF760F88E
:1020E0000C20FFF757FF3220FEF75AF80120FFF7C8
:1020F00051FFBDE870406420FEF752B810B50446A9
:1021000006E000BFFFF7BAFF14F8010BFFF7CEFEA1
:1021100020780028F6D1BDE81040FFF7AFBF10B51A
:102120001446FFF7B0FF2046BDE81040FFF7E6BFBA
:10213000C2B0FEF747F9FFF784FAFFF74FF9FFF750
:1021400085F98C488A494FF4165600240160C0E98D
:1021500001640C25C460C0E904458461C461FFF7D3
:102160005BF808B172B6FEE7FFF792F98148824941
:1021700040300160C0E90164C460C0E90445846185
:10218000C461FFF749F808B172B6FEE779484838EC
:10219000FEF73EFF002108220846FFF77FFF754843
:1021A00000214838FEF7EEFF409474A16846419440
:1021B000FFF7DEFB401C82B24FF0FF342346694636
:1021C0006C48FFF7B1F8744D012204212846FEF750
:1021D000E6F880208DF8000166482346012240A9D8
:1021E000A038FEF72CFD50B16CA16846FFF7C0FB8C
:1021F000401C82B2234669465E48FFF795F81020DE
:102200008DF800015B482346012240A9A038FEF763
:1022100016FD50B161A16846FFF7AAFB401C82B2CF
:10222000234669465348FFF77FF8002204212846D9
:10223000FEF7B5F89620FDF7B3FF4FF002084FF414
:10224000804A40F6B83958A16846FFF791FB401C18
:1022500082B2234669464748FFF766F80122042107
:102260002846FEF79CF843488DF80081234601225A
:1022700040A9A038FEF7E3FC50B148A16846FFF73B
:1022800077FB401C82B2234669463A48FFF74CF878
:1022900038482346012241A9A038FEF723FC50B15B
:1022A0003EA16846FFF764FB401C82B223466946A4
:1022B0003048FFF739F82F489DF804712346012272
:1022C00041A9A038FEF70EFC50B134A16846FFF7D3
:1022D0004FFB401C82B2234669462648FFF724F88C
:1022E0009DF80461002204212846FEF758F80A20D0
:1022F000FDF756FF33463A4632A16846FFF738FBF2
:10230000401C82B2234669461A48FFF70DF80121A6
:1023100031A20846FFF703FF32A201210220FFF796
:10232000FEFEC820FDF73CFF51462846FEF72FF879
:102330002F48FFF7F7FC012811D00E482DA180305F
:10234000FFF716FB0B49401C82B280312346A1F1F6
:102350004000FEF7E9FF4846FDF722FF73E72448F7
:1023600027A10378427803488030FFF701FBE9E7B3
:1023700000380140B400002000440040436F6E6606
:1023800069677572696E672073656E736F722E2E42
:102390002E200D0A00000000000C01404572726FF3
:1023A000722E2E2E200D0A00526561642066726F17
:1023B0006D207468652073656E736F722E2E2E20EB
:1023C0000D0A00004D53423D2025642C204C534201
:1023D0003D2025640D0A000054656D7065726174BE
:1023E0007572650048756D69646974790000000054
:1023F000000000204572726F7221210A0D0000005A
:1024000048756D6D75646974793A2025642054654A
:102410006D70657261747572653A2025640A0D00ED
:102420001FB5002100910191029103911021032217
:10243000084B012808D0002805D103920091694675
:102440001846FDF7BFFE1FBD0120CDE90010039225
:10245000F5E70000000C0140000000000000000053
:10246000010203040607080900000000010203043A
:10247000902400080000002014000000B819000893
:10248000A424000814000020A4050000C8190008B6
:10249000000000000100000010000000000000002B
:0424A0000024F40020
:04000005080000ED02
:00000001FF
