:020000040800F2
:10000000A804002005010008631100081B11000866
:10001000611100089D010008111400080000000093
:100020000000000000000000000000009D12000819
:100030009F01000800000000651100089F120008E1
:100040001F0100081F0100081F0100081F01000810
:100050001F0100081F0100081F0100081F01000800
:100060001F0100081F0100081F0100081F010008F0
:100070001F0100081F0100081F0100081F010008E0
:100080001F0100081F0100081F0100081F010008D0
:100090001F0100081F0100081F0100081F010008C0
:1000A0001F0100081F0100081F0100081F010008B0
:1000B0001F0100081F010008000000001F010008C8
:1000C0001F01000800000000000000001F010008E0
:1000D000000000001F0100081F01000800000000D0
:1000E0001F0100081F0100081F010008DFF810D0E1
:1000F00000F042F800480047C9170008AFF300803D
:10010000A80400200648804706480047FEE7FEE7AF
:10011000FEE7FEE7FEE7FEE7FEE7FEE7FEE7FEE7B7
:10012000F3120008ED000008D2B201E000F8012B44
:10013000491EFBD270470022F6E710B513460A4667
:1001400004461946FFF7F0FF204610BD30B50B46B8
:10015000014600202022012409E021FA02F59D42F7
:1001600005D303FA02F5491B04FA02F52844151ECB
:10017000A2F10102F1DC30BD064C074D06E0E0685B
:1001800040F0010394E8070098471034AC42F6D3DE
:10019000FFF7B0FF2C1A00084C1A0008FEE7704762
:1001A00070B5044600F0F4F80546601C02D004481F
:1001B0000078044400F0ECF8401BA042FAD370BD74
:1001C000000000202DE9F84FDFF89C91002409F190
:1001D000040A0AF1040B23460F270BF1040EBBE0BF
:1001E0000125A5402A40AA4276D1DFF880C14E6899
:1001F000A6EB0C0866452BD00DDC032E34D005DCB5
:1002000036B3012E19D0022E2FD11BE0112E16D09D
:10021000122E2AD119E0B8F5881F19D006DCB8F5DE
:10022000803F15D0B8F5801F1FD111E0B8F5001F31
:100230000ED0B8F5041F18D10AE0CB6815E0CB68E2
:100240001B1D12E0CB6808330FE0CB680C330CE0C9
:100250008B682BB1012B4FF0080303D0456104E0FC
:10026000042302E0056100E00023FF2A01D80646CE
:1002700001E000F104064FEA840501D9A5F120054B
:10028000D6F8008007FA05FC28EA0C0803FA05F501
:1002900048EA0508C6F800804D68ED005BD5344D8E
:1002A000AE6946F00106AE61AD6924F0030605F0C3
:1002B000010500952F4D06EB050CDCF80850A6074C
:1002C000360F07FA06F825EA0805DFF8AC80404546
:1002D00003D14FF0000810E03DE0DFF8A08040457A
:1002E00002D14FF0010808E0DFF89480404502D1C8
:1002F0004FF0020801E04FF0030808FA06F848EA58
:100300000508CCF808804D68D9F80060ED034D462B
:1003100001D5164300E096432E604D68DAF8006080
:10032000AD03554601D5164300E096432E604D6857
:10033000DBF80060ED025D4601D5164300E0964310
:100340002E604D68DEF80060AD02754601D516439B
:1003500000E096432E60641C0A6832FA04F57FF4CC
:100360003FAFBDE8F88F000000040140000011100D
:10037000001002400000014000080140000C014054
:10038000001001400AB1016170470904FBE7000059
:100390000148806870470000000000200248816822
:1003A000027811448160704700000020074810B5B2
:1003B000016841F010010160032000F067F800209F
:1003C00000F006F800F024F8002010BD00200240E4
:1003D00070B50D4D04464FF47A712878B1FBF0F0FA
:1003E0000A490968B1FBF0F000F0C1FD48B9102CD2
:1003F00007D200222146501E00F028F800206C6031
:1004000070BD012070BD0000000000200C00002025
:100410000C4808B5816941F001018161816901F0F1
:1004200001010091C16941F08051C161C06900F0D2
:10043000805000900448416821F0E06141F0806103
:10044000416008BD0010024000000140F0B40E4BB6
:100450001B680C46C3F30223C3F10705042D00D922
:100460000425191D072901D2002300E0DB1E012607
:1004700006FA05F1491E214099409E40761E16401D
:100480003143F0BC00F0DABF0CED00E0064900F0AB
:10049000070208684FF6FF03184040EA0220034AAB
:1004A00010430860704700000CED00E00000FA0502
:1004B0002DE9F0470F46050061D0434E306800F04B
:1004C0000700B84209D2306820F007003843306096
:1004D000306800F00700B84251D128683B4C8107D2
:1004E00012D5400703D5606840F4E060606028786A
:1004F000000703D5606840F4605060606068A968D8
:1005000020F0F000084360602878C00728D06868B1
:10051000012810D02168022810D0890700292EDA7E
:10052000616821F0030101436160FFF731FF8046FC
:1005300041F288390DE021688903EFE78901EDE791
:10054000FFF726FFA0EB0801494502D90320BDE8CB
:10055000F0876068696800F00C00B0EB810FEFD1A4
:10056000306800F00700B8420BD9306820F007006F
:1005700038433060306800F00700B84201D00120F5
:10058000E5E72878400705D56068E96820F4E06071
:10059000084360602878000706D56068296920F460
:1005A000605040EAC100606000F038F86168084AB5
:1005B000C1F30311515CC840064908600648006851
:1005C000FFF706FF0020C2E70020024000100240B3
:1005D000141A00080C0000200400002004480549FB
:1005E00000684968044AC1F30221515CC840704761
:1005F0000C00002000100240241A0008044805499D
:1006000000684968044AC1F3C221515CC840704780
:100610000C00002000100240241A000812A185B02E
:100620000FC98DE80F0014A0144A006804905168A7
:10063000134801F00C03042B10D0082B0ED1C1F38A
:100640008343C9031DF803000AD5516804AAC1F306
:100650004041515C0A4A5043B0FBF1F005B070478D
:1006600008494843FAE700000203040506070809A1
:100670000A0B0C0D0E0F10100102000000100240BA
:1006800000127A0000093D002DE9F84F040070D0F7
:100690002078C04DC00749D06868C0F381000128A8
:1006A00007D06868C0F38100022809D16868C003D8
:1006B00006D52868800339D560680028E7D035E082
:1006C0006068B0F5803F0BD010B1B0F5A02F11D00D
:1006D000286820F480302860286820F4802002E018
:1006E000286840F480302860606890B1FFF750FEC1
:1006F00006460AE0286840F480202860F0E700BF42
:10070000FFF746FE801B642873D828688003F7D55E
:100710000CE0FFF73DFE064605E000BFFFF738FEA0
:10072000801B6428F0D828688003F7D420789A4E7C
:1007300080074FF001094FF0000839D5686810F0C4
:100740000C0F07D06868C0F38100022809D16868DF
:10075000C00306D42868800714D52069012808D171
:1007600010E02069B0B1C6F80090FFF711FE07460F
:1007700005E00AE1FFF70CFEC01B0228C4D8286878
:100780008007F7D52868616920F0F80040EAC100C9
:1007900028600DE0C6F80080FFF7FAFD074604E088
:1007A000FFF7F6FDC01B022823D828688007F7D47E
:1007B000207800072CD57948A169D9B1C0F80090FC
:1007C000FFF7E6FD074604E0FFF7E2FDC01B022845
:1007D0000FD8686A8007F7D571484FF4FA5100685E
:1007E000B0FBF1F0009000BF0098411E0091FAD2DA
:1007F0000EE080E0C0F80080FFF7CAFD074604E085
:10080000FFF7C6FDC01B022875D8686A8007F7D4B9
:100810002078400760D5E8690027C00008D4E8695F
:1008200040F08050E861E869012700F080500090B6
:100830005C480168C90513D40168834641F480719E
:100840000160FFF7A5FD824606E000BFFFF7A0FDAF
:10085000A0EB0A0064284ED8DBF80000C005F5D5EF
:10086000E06801280AD008B1052813D0286A20F0D2
:1008700001002862286A20F0040002E0286A40F0A3
:1008800001002862E06841F2883B98B1FFF780FDE3
:1008900082460BE0286A40F004002862EEE700BFC1
:1008A000FFF776FDA0EB0A0159455AD8286A800760
:1008B000F6D50CE0FFF76CFD824605E0FFF768FD1A
:1008C000A0EB0A0159454CD8286A8007F6D41FB11D
:1008D000E86920F08050E861E06988B36968C1F395
:1008E0008101022944D00228C6F8608004D0FFF7B5
:1008F0004FFD044638E034E0FFF74AFD074604E0C8
:10090000FFF746FDC01B02282BD828688001F7D4CA
:10091000206AB0F5803F05D16868A16820F40030F6
:1009200008436860D4E908010843696821F4741138
:1009300008436860C6F86090FFF72AFD044606E0A9
:1009400025E000BFFFF724FD001B022809D8286816
:100950008001F7D51BE000BFFFF71AFD001B02283E
:1009600002D90320BDE8F88F28688001F4D40EE096
:100970000128F7D06868226A00F48031914204D1DE
:10098000616A00F47010884201D00120EAE700207B
:10099000E8E70000001002400000424280044242AA
:1009A0000C0000200070004070B5040009D0606A9F
:1009B000002540B125616561A56294F8510040B100
:1009C0000CE0012070BD6068B0F5827FF4D0E56175
:1009D000F2E784F85050204600F040F8022084F8F6
:1009E00051002068016821F040010160A088218940
:1009F00000F4827001F404410843A18901F400610C
:100A00000843217C01F002010843217D01F001012E
:100A10000843218B01F400710843217F01F0380164
:100A2000084394F8201001F080010843218D01F45F
:100A30000051084321680860A069042101EA1040C0
:100A4000216848602068C16921F40061C161656561
:100A5000012084F85100002070BD000030B585B041
:100A6000002400940194029403940068144988427D
:100A700023D11448816941F480518161816901F475
:100A800080510491816941F00401816180690E4DBA
:100A900000F004000490A0200090022001900320A8
:100AA000039069462846FFF78DFB4020CDE90004FE
:100AB000694628460294FFF785FB05B030BD00006B
:100AC0000030014000100240000801402DE9F84FBD
:100AD000044640680025984616460F464FF0040B22
:100AE000B0F5827F01D1A06888B194F85000012848
:100AF00018D0012084F85000FFF74AFC814694F892
:100B000051004FF0000A01280ED0022582E084F83F
:100B100051B013460A462046CDF8008000F036F961
:100B2000BDE8F88F0220FBE7002F72D0002E70D0B6
:100B300084F851B0C4F854A0A763A687E687C4F828
:100B400030A0A4F834A0A4F836A0C4F840A0C4F89B
:100B500044A0A068B0F5004F09D12068016821F0D9
:100B6000400101602068016821F480410160206833
:100B70000168490603D4016841F040010160E06862
:100B8000D8B139E020688168C90709D0007BA16B22
:100B90000870A06B401CA063E08F401EE0870CE053
:100BA000FFF7F6FBA0EB0901414503D3B8F1FF3F86
:100BB00003D036E0B8F1000F33D0E08F0028E1D148
:100BC0001DE020688168C90709D0C068A16B088052
:100BD000A06B801CA063E08F401EE0870CE0FFF755
:100BE000D7FBA0EB0901414503D3B8F1FF3F03D088
:100BF00017E0B8F1000F14D0E08F0028E1D14A4689
:100C00004146204600F0AFFA08B120206065606DD3
:100C100000B10125012084F8510084F850A0284635
:100C20007EE70325F6E72DE9F84F044690F85000DB
:100C300000271D461646894601280DD04FF0010BAE
:100C400084F850B0FFF7A4FB804694F85100BA46F0
:100C5000012804D0022793E00220BDE8F88FB9F103
:100C6000000F73D0002E71D0032084F85100C4F817
:100C700054A0C4F83090A686E686C4F838A0A4F83C
:100C80003CA0A4F83EA0C4F844A0C4F840A0A068CA
:100C9000B0F5004F09D12068016821F040010160E2
:100CA0002068016841F480410160206801684906BC
:100CB00003D4016841F040010160E068B0F5006FC5
:100CC000606803D030B3012E24D041E008B1012E7A
:100CD0001CD1206B21680088C86006E0206881680C
:100CE000890709D5216B0988C160206B801C2063AE
:100CF000E08E401EE08609E0FFF74AFBA0EB08000B
:100D0000A84202D3681C01D031E07DB3E08E0028F8
:100D1000E4D120E0206B21680078087306E02068A9
:100D20008168890709D5216B09780173206B401C04
:100D30002063E08E401EE0860AE0FFF729FBA0EB6F
:100D40000800A84203D3681C02D010E017E06DB180
:100D5000E08E0028E3D142462946204600F031FAD1
:100D600008B120206065A06818B106E0FFE70327FE
:100D700006E02068C16880680090606D00B10127BE
:100D800084F851B084F850A0384666E72DE9F84F52
:100D9000044690F8500000270A9E1D4692468B4656
:100DA0004FF0010901280ED0012084F85000FFF710
:100DB000EFFA804694F85100616801280CD0B1F533
:100DC000827F07D102E00220BDE8F88FA16809B94F
:100DD000042801D00227C2E0BBF1000F27D0BAF1EE
:100DE000000F24D01DB394F85100042802D0052030
:100DF00084F8510000206065C4F838A0E587A58715
:100E0000C4F830B0E586A586206460642068016877
:100E1000490603D4016841F040010160E068B0F583
:100E2000006F606805D0E8B3012D46D07FE0012750
:100E300095E008B1012D39D1206B21680088C86088
:100E4000206B801C2063E08E401EE0862EE0206830
:100E5000816889070FD5E18E69B1B9F1010F0AD117
:100E6000216B0988C160206B801C2063E08E401ECE
:100E7000E0864FF0000920688168C9070CD0E18F37
:100E800051B1C068A16B0880A06B801CA063E08F8B
:100E9000401EE0874FF00109FFF77AFAA0EB080047
:100EA000B04200E009E001D3701C50D1E08E002870
:100EB000CDD1E08F0028CAD13FE0206B21680078B7
:100EC0000873206B401C2063E08E401EE0862EE0FD
:100ED0002068816889070FD5E18E69B1B9F1010FEA
:100EE0000AD1216B09780173206B401C2063E08ECE
:100EF000401EE0864FF0000920688168C9070CD0C9
:100F0000E18F51B1C068A16B0870A06B401CA06359
:100F1000E08F401EE0874FF00109FFF739FAA0EBA0
:100F20000800B04202D3701C01D010E07EB1E08E08
:100F30000028CDD1E08F0028CAD142463146204654
:100F400000F03FF928B101272020606507E0032762
:100F500005E0A06818B92068C16880680090012089
:100F600084F85100002084F8500038462CE710B572
:100F7000401EB0F1807F01D3012010BD4FF0E0246E
:100F800060610F21601700F059FA0020A06107206E
:100F90002061002010BD70B5040004D094F8390021
:100FA000002510B106E0012070BD84F838502046BD
:100FB00000F022F8242084F839002068C16821F468
:100FC0000051C160204600F095F92068016921F4C4
:100FD000904101612068416921F02A014161206846
:100FE000C16841F40051C160E563202084F83900F4
:100FF00084F83A00002070BD30B585B0002400941C
:1010000001940294039400681449884224D114483E
:10101000816941F480418161816901F480410491D9
:10102000816941F00401816180690E4D00F0040086
:1010300004904FF400700090022001900320039070
:1010400069462846FFF7BEF82815CDE90004694631
:1010500028460294FFF7B6F805B030BD00380140CD
:1010600000100240000801402DE9F843044690F8C2
:1010700039001F4616460D4620284CD1C5B1BEB1D9
:1010800094F83800012846D0012084F838004FF049
:101090000008C4F83C80212084F83900FFF778F973
:1010A000A6848146E684A068B0F5805F03D004E0A2
:1010B0000120BDE8F883206928B12E465FF00005C5
:1010C00084F838800EE00026FAE78021204600F000
:1010D0006DF9A0B9AEB116F8010B21684860E08C3B
:1010E000401EE084E08C4B464FF000020097002841
:1010F000EBD14FF04001204600F058F930B1032009
:10110000D7E735F8020BC0F30800E6E7202084F8A3
:1011100039000020CDE70220CBE7FEE70F4810B5ED
:101120000D4901604FF48271416000218160C1600E
:101130004FF400720161C0E905123822C0E90721AD
:10114000416281620A21C162FFF72EFC002801D0B2
:1011500072B6FEE710BD0000003001401000002014
:10116000FEE7FEE77047F8B5044640684FF4827327
:10117000984217D1A0684FF48065B0F5004F01D0B8
:10118000A8420FD12068066826F040060660606815
:10119000984207D1A068A84204D100920B460022D1
:1011A000012103E000920B4600228021204600F03E
:1011B00019F8002804D0606D40F02000606503201D
:1011C000F8BD38B50B46009204460022802100F09D
:1011D00009F8002804D0606D40F02000606503200D
:1011E00038BD00002DE9F8431E4691468846044666
:1011F000089DFFF7CDF8401B351AFFF7C9F80746E1
:1012000025480068C0F3CB30684338E0701C37D005
:10121000FFF7BEF8C01BA84203D215B1009860B317
:101220002CE02068416821F0E00141606068B0F581
:10123000827F0BD1A068B0F5004F02D0B0F5806F6F
:1012400004D12068016821F040010160A06AB0F576
:10125000005F09D12068016821F400510160206815
:10126000016841F400510160012084F85100002020
:1012700084F850000320BDE8F8830025401E00904C
:101280002068816838EA010004D000214945BDD1B9
:101290000020F0E70121F9E70C0000207047FFF77C
:1012A0007DB810B590B028216846FEF744FF1421A0
:1012B0000AA8FEF740FF02200090012004901020B1
:1012C0000024059007946846FFF7DEF908B172B66E
:1012D000FEE70F20CDE90A040C940D9400210AA822
:1012E0000E94FFF7E5F8002801D072B6FEE710B0C3
:1012F00010BD704770B5044600680169E26821F4CA
:101300004051114301612169A068084361690843A4
:101310002168CA6841F20C639A430243CA6020689C
:101320004169A26921F44071114341611E4920685D
:10133000884202D1FFF762F901E0FFF74FF900EBB5
:10134000C00101EB0012606864218000B2FBF0F381
:10135000B3FBF1F36FF018067343B2FBF0F5B2FB89
:10136000F0F605EB8305322303EB0515B5FBF1F52C
:10137000B6FBF1F605F0F00505EB0615B2FBF0F64D
:10138000B2FBF0F0B0FBF1F06FF01802504306EB47
:10139000800003EB0010B0FBF1F0216800F00F00BB
:1013A0002844886070BD0000003801402DE9F041FC
:1013B000984617460E460446069D1DE0681C1BD045
:1013C0002DB1FEF7E5FFA0EB0800A84214D9206874
:1013D000C16821F4D071C1602068416921F0010128
:1013E0004161202084F8390084F83A00002084F814
:1013F00038000320BDE8F0812068006836EA00006C
:1014000004D00020B842D9D00020F3E70120F9E74A
:10141000FEE700000FB4084B10B504A902AA039818
:1014200000F02CF8044602A9002000F0C8F920467C
:1014300010BC5DF814FB0000BF1700080907090E77
:10144000002804DB00F1E02080F80014704700F071
:101450000F0000F1E02080F8141D704702E008C87A
:10146000121F08C1002AFAD170477047002001E01E
:1014700001C1121F002AFBD1704700002DE9FF4F68
:101480008BB088460546002606E025280BD0DDE90E
:101490000D1290476D1C761C28780028F5D10FB0EE
:1014A0003046BDE8F08F0024A146A2460122AE4995
:1014B00000E0044315F8013F203B02FA03F0084224
:1014C000F7D128782A2810D06FF02F022878A0F1C1
:1014D0003001092915D809EB890102EB410144F0DB
:1014E000020400EB01096D1CF0E758F8041B5FEAE9
:1014F000010903D544F40054C9F1000944F0020481
:101500006D1C28782E2817D115F8010F44F004041B
:101510002A280ED06FF02F022878A0F13001092977
:101520000AD80AEB8A0102EB410100EB010A6D1CAB
:10153000F2E758F804AB6D1C28786C280FD006DC55
:101540004C2817D068280DD06A2814D104E07428DC
:1015500010D07A280FD10DE044F400140AE044F4CE
:10156000801401E044F440146978814202D104F50A
:1015700080146D1C6D1C2878692865D006DC002855
:101580008DD0632827D0642806D15DE06E2808D06E
:1015900073282AD0752877D0DDE90D129047761C84
:1015A000E0E0C4F30250022809D003280DD0D8F897
:1015B000001004280DD00E6008F10408D2E0D8F81D
:1015C0000010F217C1E90062F6E7D8F800100E80AB
:1015D000F2E70E70F0E718F8041B8DF800100020F9
:1015E0008DF80100EB46012003E058F804BB4FF0F2
:1015F000FF3061074FF0000701D40AE07F1C574518
:101600000DDA8742FADB1BF807100029F6D106E055
:101610007F1C8742FCDB1BF807100029F8D1DDE9AD
:101620000D23A9EB07008146214600F0B1F83044B4
:10163000C61904E0DDE90D121BF8010B90477F1E6F
:10164000F8D22146484688E058F8040BC4F302510A
:101650004FF00A0B032900D100B2042900D140B297
:10166000002802DA40422D2102E0210505D52B2178
:101670008DF82410012104E006E0E10710D02021BC
:10168000F6E708AF089113E058F8040BC4F30251D1
:101690004FF00A0B032900D180B2042900D1C0B257
:1016A0000021EEE75946FEF751FD303107F8011DE4
:1016B0000028F7D1ADEB070000F1200B600702D541
:1016C00024F4803401E04FF0010ADA4502DDAAEB90
:1016D0000B0000E00020824600EB0B01089801445B
:1016E000A9EB01000A90E00306D4DDE90D232146B1
:1016F0000A9800F04DF806444FF0000908E009A9E7
:1017000011F80900DDE90D12904709F10109761C75
:1017100008998945F3DBE0030CD5DDE90D2321466B
:101720000A9800F035F8064404E0DDE90D12302097
:101730009047761CBAF10001AAF1010AF5DC05E038
:10174000DDE90D1217F8010B9047761CBBF1000183
:10175000ABF1010BF4DC0A982146DDE90D2300F022
:1017600005F806446D1C97E6092801002DE9F041B3
:10177000044600251E461746880404D405E0394671
:101780002020B0476D1C641EF9D52846BDE8F081C5
:101790002DE9F041044600251E469046C80301D5B8
:1017A000302700E02027880404D505E0414638466C
:1017B000B0476D1C641EF9D52846BDE8F0810A6863
:1017C000531C0B6010707047C8B0FEF7EFFDFFF7B9
:1017D00068FD002475484494459446944794816973
:1017E00041F004018161816901F004014091816946
:1017F00041F00801816180696D4D00F00800409062
:10180000002204212846FEF7BDFD0420449045AA8D
:101810000120022682E8510044A92846FEF7D2FCA6
:10182000FFF77CFC6449634808604FF41650C1E937
:1018300001040C20CC60C1E904408C610846CC61F5
:10184000FFF7A9FB08B172B6FEE743945BA16846B7
:101850004294FFF7DFFD401C82B24FF0FF34234675
:1018600069465548FFF700FC012204212846FEF78F
:1018700089FD80208DF80C014F482346012243A9A1
:101880005838FFF7D0F950B153A16846FFF7C2FDB1
:10189000401C82B2234669464748FFF7E5FB10200B
:1018A0008DF80C0144482346012243A95838FFF71C
:1018B000BAF950B148A16846FFF7ACFD401C82B2AE
:1018C000234669463C48FFF7CFFB00220421284607
:1018D000FEF758FD9620FEF763FCB04641A168462E
:1018E000FFF798FD401C82B2234669463248FFF755
:1018F000BBFB012204212846FEF744FD2E488DF84B
:101900000C812346012243A95838FFF78CF950B1C6
:1019100031A16846FFF77EFD401C82B2234669462E
:101920002548FFF7A1FB24482346012242A9583845
:10193000FFF7CCF850B128A16846FFF76BFD401CBB
:1019400082B2234669461C48FFF78EFB1A489DF871
:1019500008712346012242A95838FFF7B7F850B161
:101960001DA16846FFF756FD401C82B2234669461A
:101970001148FFF779FB9DF80861002204212846F1
:10198000FEF700FD0A20FEF70BFC33463A461CA189
:101990006846FFF73FFD401C82B223466946064871
:1019A000FFF762FBC820FEF7FBFB97E70010024041
:1019B000000C01400038014068000020436F6E6653
:1019C00069677572696E672073656E736F722E2E0C
:1019D0002E200D0A000000004572726F722E2E2E0E
:1019E000200D0A00526561642066726F6D20746874
:1019F000652073656E736F722E2E2E200D0A000007
:101A00004D53423D2025642C204C53423D202564FB
:101A10000D0A0000000000000000000001020304A5
:101A20000607080900000000010203044C1A000820
:101A300000000020100000005C1400085C1A000880
:101A400010000020980400006C1400080100000041
:0C1A500010000000000000000024F40062
:04000005080000ED02
:00000001FF
